{
  "_format": "hh-sol-artifact-1",
  "contractName": "Oshiakwo",
  "sourceName": "contracts/Oshiakwo.sol",
  "abi": [
    {
      "inputs": [],
      "stateMutability": "nonpayable",
      "type": "constructor"
    },
    {
      "anonymous": false,
      "inputs": [
        {
          "indexed": true,
          "internalType": "address",
          "name": "owner",
          "type": "address"
        },
        {
          "indexed": true,
          "internalType": "address",
          "name": "approved",
          "type": "address"
        },
        {
          "indexed": true,
          "internalType": "uint256",
          "name": "tokenId",
          "type": "uint256"
        }
      ],
      "name": "Approval",
      "type": "event"
    },
    {
      "anonymous": false,
      "inputs": [
        {
          "indexed": true,
          "internalType": "address",
          "name": "owner",
          "type": "address"
        },
        {
          "indexed": true,
          "internalType": "address",
          "name": "operator",
          "type": "address"
        },
        {
          "indexed": false,
          "internalType": "bool",
          "name": "approved",
          "type": "bool"
        }
      ],
      "name": "ApprovalForAll",
      "type": "event"
    },
    {
      "anonymous": false,
      "inputs": [
        {
          "indexed": true,
          "internalType": "address",
          "name": "from",
          "type": "address"
        },
        {
          "indexed": true,
          "internalType": "address",
          "name": "to",
          "type": "address"
        },
        {
          "indexed": true,
          "internalType": "uint256",
          "name": "tokenId",
          "type": "uint256"
        }
      ],
      "name": "Transfer",
      "type": "event"
    },
    {
      "inputs": [
        {
          "internalType": "address",
          "name": "to",
          "type": "address"
        },
        {
          "internalType": "uint256",
          "name": "tokenId",
          "type": "uint256"
        }
      ],
      "name": "approve",
      "outputs": [],
      "stateMutability": "nonpayable",
      "type": "function"
    },
    {
      "inputs": [
        {
          "internalType": "uint256",
          "name": "_style1",
          "type": "uint256"
        },
        {
          "internalType": "uint256",
          "name": "_style2",
          "type": "uint256"
        }
      ],
      "name": "approveSwap",
      "outputs": [],
      "stateMutability": "nonpayable",
      "type": "function"
    },
    {
      "inputs": [
        {
          "internalType": "address",
          "name": "owner",
          "type": "address"
        }
      ],
      "name": "balanceOf",
      "outputs": [
        {
          "internalType": "uint256",
          "name": "",
          "type": "uint256"
        }
      ],
      "stateMutability": "view",
      "type": "function"
    },
    {
      "inputs": [
        {
          "internalType": "uint256",
          "name": "_tokenId",
          "type": "uint256"
        }
      ],
      "name": "buyStyle",
      "outputs": [],
      "stateMutability": "payable",
      "type": "function"
    },
    {
      "inputs": [
        {
          "internalType": "uint256",
          "name": "_tokenId",
          "type": "uint256"
        }
      ],
      "name": "favStyle",
      "outputs": [],
      "stateMutability": "nonpayable",
      "type": "function"
    },
    {
      "inputs": [
        {
          "internalType": "uint256",
          "name": "",
          "type": "uint256"
        },
        {
          "internalType": "address",
          "name": "",
          "type": "address"
        }
      ],
      "name": "favs",
      "outputs": [
        {
          "internalType": "bool",
          "name": "",
          "type": "bool"
        }
      ],
      "stateMutability": "view",
      "type": "function"
    },
    {
      "inputs": [
        {
          "internalType": "uint256",
          "name": "tokenId",
          "type": "uint256"
        }
      ],
      "name": "getApproved",
      "outputs": [
        {
          "internalType": "address",
          "name": "",
          "type": "address"
        }
      ],
      "stateMutability": "view",
      "type": "function"
    },
    {
      "inputs": [
        {
          "internalType": "uint256",
          "name": "tokenId",
          "type": "uint256"
        }
      ],
      "name": "getStyles",
      "outputs": [
        {
          "components": [
            {
              "internalType": "address payable",
              "name": "owner",
              "type": "address"
            },
            {
              "internalType": "string",
              "name": "name",
              "type": "string"
            },
            {
              "internalType": "uint256",
              "name": "price",
              "type": "uint256"
            },
            {
              "internalType": "bool",
              "name": "swapRequest",
              "type": "bool"
            }
          ],
          "internalType": "struct Oshiakwo.Style",
          "name": "",
          "type": "tuple"
        }
      ],
      "stateMutability": "view",
      "type": "function"
    },
    {
      "inputs": [
        {
          "internalType": "address",
          "name": "owner",
          "type": "address"
        },
        {
          "internalType": "address",
          "name": "operator",
          "type": "address"
        }
      ],
      "name": "isApprovedForAll",
      "outputs": [
        {
          "internalType": "bool",
          "name": "",
          "type": "bool"
        }
      ],
      "stateMutability": "view",
      "type": "function"
    },
    {
      "inputs": [],
      "name": "name",
      "outputs": [
        {
          "internalType": "string",
          "name": "",
          "type": "string"
        }
      ],
      "stateMutability": "view",
      "type": "function"
    },
    {
      "inputs": [
        {
          "internalType": "uint256",
          "name": "tokenId",
          "type": "uint256"
        }
      ],
      "name": "ownerOf",
      "outputs": [
        {
          "internalType": "address",
          "name": "",
          "type": "address"
        }
      ],
      "stateMutability": "view",
      "type": "function"
    },
    {
      "inputs": [
        {
          "internalType": "uint256",
          "name": "_style1",
          "type": "uint256"
        },
        {
          "internalType": "uint256",
          "name": "_style2",
          "type": "uint256"
        }
      ],
      "name": "requestSwap",
      "outputs": [],
      "stateMutability": "nonpayable",
      "type": "function"
    },
    {
      "inputs": [
        {
          "internalType": "uint256",
          "name": "",
          "type": "uint256"
        }
      ],
      "name": "requests",
      "outputs": [
        {
          "internalType": "address",
          "name": "",
          "type": "address"
        }
      ],
      "stateMutability": "view",
      "type": "function"
    },
    {
      "inputs": [
        {
          "internalType": "address",
          "name": "from",
          "type": "address"
        },
        {
          "internalType": "address",
          "name": "to",
          "type": "address"
        },
        {
          "internalType": "uint256",
          "name": "tokenId",
          "type": "uint256"
        }
      ],
      "name": "safeTransferFrom",
      "outputs": [],
      "stateMutability": "nonpayable",
      "type": "function"
    },
    {
      "inputs": [
        {
          "internalType": "address",
          "name": "from",
          "type": "address"
        },
        {
          "internalType": "address",
          "name": "to",
          "type": "address"
        },
        {
          "internalType": "uint256",
          "name": "tokenId",
          "type": "uint256"
        },
        {
          "internalType": "bytes",
          "name": "data",
          "type": "bytes"
        }
      ],
      "name": "safeTransferFrom",
      "outputs": [],
      "stateMutability": "nonpayable",
      "type": "function"
    },
    {
      "inputs": [
        {
          "internalType": "address",
          "name": "operator",
          "type": "address"
        },
        {
          "internalType": "bool",
          "name": "approved",
          "type": "bool"
        }
      ],
      "name": "setApprovalForAll",
      "outputs": [],
      "stateMutability": "nonpayable",
      "type": "function"
    },
    {
      "inputs": [
        {
          "internalType": "string",
          "name": "_name",
          "type": "string"
        },
        {
          "internalType": "uint256",
          "name": "_price",
          "type": "uint256"
        },
        {
          "internalType": "string",
          "name": "_url",
          "type": "string"
        }
      ],
      "name": "storeStyle",
      "outputs": [],
      "stateMutability": "nonpayable",
      "type": "function"
    },
    {
      "inputs": [
        {
          "internalType": "uint256",
          "name": "",
          "type": "uint256"
        }
      ],
      "name": "styles",
      "outputs": [
        {
          "internalType": "address payable",
          "name": "owner",
          "type": "address"
        },
        {
          "internalType": "string",
          "name": "name",
          "type": "string"
        },
        {
          "internalType": "uint256",
          "name": "price",
          "type": "uint256"
        },
        {
          "internalType": "bool",
          "name": "swapRequest",
          "type": "bool"
        }
      ],
      "stateMutability": "view",
      "type": "function"
    },
    {
      "inputs": [
        {
          "internalType": "bytes4",
          "name": "interfaceId",
          "type": "bytes4"
        }
      ],
      "name": "supportsInterface",
      "outputs": [
        {
          "internalType": "bool",
          "name": "",
          "type": "bool"
        }
      ],
      "stateMutability": "view",
      "type": "function"
    },
    {
      "inputs": [
        {
          "internalType": "address",
          "name": "",
          "type": "address"
        }
      ],
      "name": "swaps",
      "outputs": [
        {
          "internalType": "uint256",
          "name": "giveStyle",
          "type": "uint256"
        },
        {
          "internalType": "uint256",
          "name": "receiveStyle",
          "type": "uint256"
        }
      ],
      "stateMutability": "view",
      "type": "function"
    },
    {
      "inputs": [],
      "name": "symbol",
      "outputs": [
        {
          "internalType": "string",
          "name": "",
          "type": "string"
        }
      ],
      "stateMutability": "view",
      "type": "function"
    },
    {
      "inputs": [
        {
          "internalType": "uint256",
          "name": "index",
          "type": "uint256"
        }
      ],
      "name": "tokenByIndex",
      "outputs": [
        {
          "internalType": "uint256",
          "name": "",
          "type": "uint256"
        }
      ],
      "stateMutability": "view",
      "type": "function"
    },
    {
      "inputs": [
        {
          "internalType": "address",
          "name": "owner",
          "type": "address"
        },
        {
          "internalType": "uint256",
          "name": "index",
          "type": "uint256"
        }
      ],
      "name": "tokenOfOwnerByIndex",
      "outputs": [
        {
          "internalType": "uint256",
          "name": "",
          "type": "uint256"
        }
      ],
      "stateMutability": "view",
      "type": "function"
    },
    {
      "inputs": [
        {
          "internalType": "uint256",
          "name": "tokenId",
          "type": "uint256"
        }
      ],
      "name": "tokenURI",
      "outputs": [
        {
          "internalType": "string",
          "name": "",
          "type": "string"
        }
      ],
      "stateMutability": "view",
      "type": "function"
    },
    {
      "inputs": [],
      "name": "totalSupply",
      "outputs": [
        {
          "internalType": "uint256",
          "name": "",
          "type": "uint256"
        }
      ],
      "stateMutability": "view",
      "type": "function"
    },
    {
      "inputs": [
        {
          "internalType": "address",
          "name": "from",
          "type": "address"
        },
        {
          "internalType": "address",
          "name": "to",
          "type": "address"
        },
        {
          "internalType": "uint256",
          "name": "tokenId",
          "type": "uint256"
        }
      ],
      "name": "transferFrom",
      "outputs": [],
      "stateMutability": "nonpayable",
      "type": "function"
    }
  ],
  "bytecode": "0x60806040526040518060c001604052806081815260200162004d1a60819139600c9080519060200190620000359291906200011f565b5060405180610140016040528061010f815260200162004c0b61010f9139600d90805190602001906200006a9291906200011f565b503480156200007857600080fd5b506040518060400160405280600881526020017f4f736869616b776f0000000000000000000000000000000000000000000000008152506040518060400160405280600381526020017f4f534b00000000000000000000000000000000000000000000000000000000008152508160009080519060200190620000fd9291906200011f565b508060019080519060200190620001169291906200011f565b50505062000234565b8280546200012d90620001fe565b90600052602060002090601f0160209004810192826200015157600085556200019d565b82601f106200016c57805160ff19168380011785556200019d565b828001600101855582156200019d579182015b828111156200019c5782518255916020019190600101906200017f565b5b509050620001ac9190620001b0565b5090565b5b80821115620001cb576000816000905550600101620001b1565b5090565b7f4e487b7100000000000000000000000000000000000000000000000000000000600052602260045260246000fd5b600060028204905060018216806200021757607f821691505b602082108114156200022e576200022d620001cf565b5b50919050565b6149c780620002446000396000f3fe6080604052600436106101815760003560e01c8063652f43ac116100d1578063b2c60dc91161008a578063c87b56dd11610064578063c87b56dd146105e5578063dac4f2f614610622578063dafd68c71461064b578063e985e9c51461067457610181565b8063b2c60dc914610553578063b88d4fde14610593578063c23680c2146105bc57610181565b8063652f43ac1461040b57806370a082311461044857806381d12c581461048557806386d439b6146104c257806395d89b41146104ff578063a22cb4651461052a57610181565b8063209cce4f1161013e5780633881a247116101185780633881a2471461033f57806342842e0e146103685780634f6ccce7146103915780636352211e146103ce57610181565b8063209cce4f146102bd57806323b872dd146102d95780632f745c591461030257610181565b806301ffc9a71461018657806306fdde03146101c3578063081812fc146101ee578063095ea7b31461022b5780631688cf541461025457806318160ddd14610292575b600080fd5b34801561019257600080fd5b506101ad60048036038101906101a89190613204565b6106b1565b6040516101ba919061324c565b60405180910390f35b3480156101cf57600080fd5b506101d86106c3565b6040516101e59190613300565b60405180910390f35b3480156101fa57600080fd5b5061021560048036038101906102109190613358565b610755565b60405161022291906133c6565b60405180910390f35b34801561023757600080fd5b50610252600480360381019061024d919061340d565b61079b565b005b34801561026057600080fd5b5061027b6004803603810190610276919061344d565b6108b3565b604051610289929190613489565b60405180910390f35b34801561029e57600080fd5b506102a76108d7565b6040516102b491906134b2565b60405180910390f35b6102d760048036038101906102d29190613358565b6108e4565b005b3480156102e557600080fd5b5061030060048036038101906102fb91906134cd565b610afe565b005b34801561030e57600080fd5b506103296004803603810190610324919061340d565b610b5e565b60405161033691906134b2565b60405180910390f35b34801561034b57600080fd5b5061036660048036038101906103619190613358565b610c03565b005b34801561037457600080fd5b5061038f600480360381019061038a91906134cd565b610ccc565b005b34801561039d57600080fd5b506103b860048036038101906103b39190613358565b610cec565b6040516103c591906134b2565b60405180910390f35b3480156103da57600080fd5b506103f560048036038101906103f09190613358565b610d5d565b60405161040291906133c6565b60405180910390f35b34801561041757600080fd5b50610432600480360381019061042d9190613358565b610de4565b60405161043f919061360c565b60405180910390f35b34801561045457600080fd5b5061046f600480360381019061046a919061344d565b610f24565b60405161047c91906134b2565b60405180910390f35b34801561049157600080fd5b506104ac60048036038101906104a79190613358565b610fdc565b6040516104b991906133c6565b60405180910390f35b3480156104ce57600080fd5b506104e960048036038101906104e4919061362e565b61100f565b6040516104f6919061324c565b60405180910390f35b34801561050b57600080fd5b5061051461103e565b6040516105219190613300565b60405180910390f35b34801561053657600080fd5b50610551600480360381019061054c919061369a565b6110d0565b005b34801561055f57600080fd5b5061057a60048036038101906105759190613358565b6110e6565b60405161058a94939291906136e9565b60405180910390f35b34801561059f57600080fd5b506105ba60048036038101906105b5919061386a565b6111cb565b005b3480156105c857600080fd5b506105e360048036038101906105de91906138ed565b61122d565b005b3480156105f157600080fd5b5061060c60048036038101906106079190613358565b611606565b6040516106199190613300565b60405180910390f35b34801561062e57600080fd5b50610649600480360381019061064491906138ed565b611618565b005b34801561065757600080fd5b50610672600480360381019061066d91906139ce565b611811565b005b34801561068057600080fd5b5061069b60048036038101906106969190613a59565b61192f565b6040516106a8919061324c565b60405180910390f35b60006106bc826119c3565b9050919050565b6060600080546106d290613ac8565b80601f01602080910402602001604051908101604052809291908181526020018280546106fe90613ac8565b801561074b5780601f106107205761010080835404028352916020019161074b565b820191906000526020600020905b81548152906001019060200180831161072e57829003601f168201915b5050505050905090565b600061076082611a3d565b6004600083815260200190815260200160002060009054906101000a900473ffffffffffffffffffffffffffffffffffffffff169050919050565b60006107a682610d5d565b90508073ffffffffffffffffffffffffffffffffffffffff168373ffffffffffffffffffffffffffffffffffffffff161415610817576040517f08c379a000000000000000000000000000000000000000000000000000000000815260040161080e90613b6c565b60405180910390fd5b8073ffffffffffffffffffffffffffffffffffffffff16610836611a88565b73ffffffffffffffffffffffffffffffffffffffff16148061086557506108648161085f611a88565b61192f565b5b6108a4576040517f08c379a000000000000000000000000000000000000000000000000000000000815260040161089b90613bfe565b60405180910390fd5b6108ae8383611a90565b505050565b60116020528060005260406000206000915090508060000154908060010154905082565b6000600880549050905090565b6000600e600083815260200190815260200160002090508060000160009054906101000a900473ffffffffffffffffffffffffffffffffffffffff1673ffffffffffffffffffffffffffffffffffffffff163373ffffffffffffffffffffffffffffffffffffffff16141561098e576040517f08c379a000000000000000000000000000000000000000000000000000000000815260040161098590613c6a565b60405180910390fd5b80600201543410156109d5576040517f08c379a00000000000000000000000000000000000000000000000000000000081526004016109cc90613cd6565b60405180910390fd5b60008160000160009054906101000a900473ffffffffffffffffffffffffffffffffffffffff169050338260000160006101000a81548173ffffffffffffffffffffffffffffffffffffffff021916908373ffffffffffffffffffffffffffffffffffffffff160217905550610a4c813385611b49565b60008173ffffffffffffffffffffffffffffffffffffffff1634604051610a7290613d27565b60006040518083038185875af1925050503d8060008114610aaf576040519150601f19603f3d011682016040523d82523d6000602084013e610ab4565b606091505b5050905080610af8576040517f08c379a0000000000000000000000000000000000000000000000000000000008152600401610aef90613d88565b60405180910390fd5b50505050565b610b0f610b09611a88565b82611e43565b610b4e576040517f08c379a0000000000000000000000000000000000000000000000000000000008152600401610b4590613e1a565b60405180910390fd5b610b59838383611b49565b505050565b6000610b6983610f24565b8210610baa576040517f08c379a0000000000000000000000000000000000000000000000000000000008152600401610ba190613eac565b60405180910390fd5b600660008473ffffffffffffffffffffffffffffffffffffffff1673ffffffffffffffffffffffffffffffffffffffff168152602001908152602001600020600083815260200190815260200160002054905092915050565b600f600082815260200190815260200160002060003373ffffffffffffffffffffffffffffffffffffffff1673ffffffffffffffffffffffffffffffffffffffff16815260200190815260200160002060009054906101000a900460ff1615600f600083815260200190815260200160002060003373ffffffffffffffffffffffffffffffffffffffff1673ffffffffffffffffffffffffffffffffffffffff16815260200190815260200160002060006101000a81548160ff02191690831515021790555050565b610ce7838383604051806020016040528060008152506111cb565b505050565b6000610cf66108d7565b8210610d37576040517f08c379a0000000000000000000000000000000000000000000000000000000008152600401610d2e90613f3e565b60405180910390fd5b60088281548110610d4b57610d4a613f5e565b5b90600052602060002001549050919050565b600080610d6983611ed8565b9050600073ffffffffffffffffffffffffffffffffffffffff168173ffffffffffffffffffffffffffffffffffffffff161415610ddb576040517f08c379a0000000000000000000000000000000000000000000000000000000008152600401610dd290613fd9565b60405180910390fd5b80915050919050565b610dec6130b5565b6000600e60008481526020019081526020016000209050806040518060800160405290816000820160009054906101000a900473ffffffffffffffffffffffffffffffffffffffff1673ffffffffffffffffffffffffffffffffffffffff1673ffffffffffffffffffffffffffffffffffffffff168152602001600182018054610e7590613ac8565b80601f0160208091040260200160405190810160405280929190818152602001828054610ea190613ac8565b8015610eee5780601f10610ec357610100808354040283529160200191610eee565b820191906000526020600020905b815481529060010190602001808311610ed157829003601f168201915b50505050508152602001600282015481526020016003820160009054906101000a900460ff161515151581525050915050919050565b60008073ffffffffffffffffffffffffffffffffffffffff168273ffffffffffffffffffffffffffffffffffffffff161415610f95576040517f08c379a0000000000000000000000000000000000000000000000000000000008152600401610f8c9061406b565b60405180910390fd5b600360008373ffffffffffffffffffffffffffffffffffffffff1673ffffffffffffffffffffffffffffffffffffffff168152602001908152602001600020549050919050565b60106020528060005260406000206000915054906101000a900473ffffffffffffffffffffffffffffffffffffffff1681565b600f6020528160005260406000206020528060005260406000206000915091509054906101000a900460ff1681565b60606001805461104d90613ac8565b80601f016020809104026020016040519081016040528092919081815260200182805461107990613ac8565b80156110c65780601f1061109b576101008083540402835291602001916110c6565b820191906000526020600020905b8154815290600101906020018083116110a957829003601f168201915b5050505050905090565b6110e26110db611a88565b8383611f15565b5050565b600e6020528060005260406000206000915090508060000160009054906101000a900473ffffffffffffffffffffffffffffffffffffffff169080600101805461112f90613ac8565b80601f016020809104026020016040519081016040528092919081815260200182805461115b90613ac8565b80156111a85780601f1061117d576101008083540402835291602001916111a8565b820191906000526020600020905b81548152906001019060200180831161118b57829003601f168201915b5050505050908060020154908060030160009054906101000a900460ff16905084565b6111dc6111d6611a88565b83611e43565b61121b576040517f08c379a000000000000000000000000000000000000000000000000000000000815260040161121290613e1a565b60405180910390fd5b61122784848484612082565b50505050565b80600e600082815260200190815260200160002060000160009054906101000a900473ffffffffffffffffffffffffffffffffffffffff1673ffffffffffffffffffffffffffffffffffffffff163373ffffffffffffffffffffffffffffffffffffffff16146112d2576040517f08c379a00000000000000000000000000000000000000000000000000000000081526004016112c9906140fd565b60405180910390fd5b60006112dd84610d5d565b905060006112ea84610d5d565b9050600e600085815260200190815260200160002060030160009054906101000a900460ff1661134f576040517f08c379a000000000000000000000000000000000000000000000000000000000815260040161134690614169565b60405180910390fd5b83601160008473ffffffffffffffffffffffffffffffffffffffff1673ffffffffffffffffffffffffffffffffffffffff16815260200190815260200160002060010154146113d3576040517f08c379a00000000000000000000000000000000000000000000000000000000081526004016113ca906141d5565b60405180910390fd5b84601160008473ffffffffffffffffffffffffffffffffffffffff1673ffffffffffffffffffffffffffffffffffffffff1681526020019081526020016000206000015414611457576040517f08c379a000000000000000000000000000000000000000000000000000000000815260040161144e906141d5565b60405180910390fd5b3073ffffffffffffffffffffffffffffffffffffffff166010600086815260200190815260200160002060009054906101000a900473ffffffffffffffffffffffffffffffffffffffff1673ffffffffffffffffffffffffffffffffffffffff16146115ff576114c8828287611b49565b6114d3818386611b49565b80600e600087815260200190815260200160002060000160006101000a81548173ffffffffffffffffffffffffffffffffffffffff021916908373ffffffffffffffffffffffffffffffffffffffff16021790555081600e600086815260200190815260200160002060000160006101000a81548173ffffffffffffffffffffffffffffffffffffffff021916908373ffffffffffffffffffffffffffffffffffffffff160217905550306010600086815260200190815260200160002060006101000a81548173ffffffffffffffffffffffffffffffffffffffff021916908373ffffffffffffffffffffffffffffffffffffffff1602179055506000600e600086815260200190815260200160002060030160006101000a81548160ff0219169083151502179055505b5050505050565b6060611611826120de565b9050919050565b600e600082815260200190815260200160002060030160009054906101000a900460ff161561167c576040517f08c379a000000000000000000000000000000000000000000000000000000000815260040161167390614267565b60405180910390fd5b600e600082815260200190815260200160002060000160009054906101000a900473ffffffffffffffffffffffffffffffffffffffff1673ffffffffffffffffffffffffffffffffffffffff163373ffffffffffffffffffffffffffffffffffffffff161415611721576040517f08c379a0000000000000000000000000000000000000000000000000000000008152600401611718906142f9565b60405180910390fd5b6001600e600083815260200190815260200160002060030160006101000a81548160ff021916908315150217905550336010600083815260200190815260200160002060006101000a81548173ffffffffffffffffffffffffffffffffffffffff021916908373ffffffffffffffffffffffffffffffffffffffff160217905550604051806040016040528083815260200182815250601160003373ffffffffffffffffffffffffffffffffffffffff1673ffffffffffffffffffffffffffffffffffffffff16815260200190815260200160002060008201518160000155602082015181600101559050505050565b600060405180608001604052803373ffffffffffffffffffffffffffffffffffffffff168152602001858152602001848152602001821515815250600e600061185a600b6121f1565b815260200190815260200160002060008201518160000160006101000a81548173ffffffffffffffffffffffffffffffffffffffff021916908373ffffffffffffffffffffffffffffffffffffffff16021790555060208201518160010190805190602001906118cb9291906130f5565b506040820151816002015560608201518160030160006101000a81548160ff02191690831515021790555090505061190c33611907600b6121f1565b6121ff565b61191f611919600b6121f1565b8361221d565b611929600b612291565b50505050565b6000600560008473ffffffffffffffffffffffffffffffffffffffff1673ffffffffffffffffffffffffffffffffffffffff16815260200190815260200160002060008373ffffffffffffffffffffffffffffffffffffffff1673ffffffffffffffffffffffffffffffffffffffff16815260200190815260200160002060009054906101000a900460ff16905092915050565b60007f780e9d63000000000000000000000000000000000000000000000000000000007bffffffffffffffffffffffffffffffffffffffffffffffffffffffff1916827bffffffffffffffffffffffffffffffffffffffffffffffffffffffff19161480611a365750611a35826122a7565b5b9050919050565b611a4681612389565b611a85576040517f08c379a0000000000000000000000000000000000000000000000000000000008152600401611a7c90613fd9565b60405180910390fd5b50565b600033905090565b816004600083815260200190815260200160002060006101000a81548173ffffffffffffffffffffffffffffffffffffffff021916908373ffffffffffffffffffffffffffffffffffffffff160217905550808273ffffffffffffffffffffffffffffffffffffffff16611b0383610d5d565b73ffffffffffffffffffffffffffffffffffffffff167f8c5be1e5ebec7d5bd14f71427d1e84f3dd0314c0f7b2291e5b200ac8c7c3b92560405160405180910390a45050565b8273ffffffffffffffffffffffffffffffffffffffff16611b6982610d5d565b73ffffffffffffffffffffffffffffffffffffffff1614611bbf576040517f08c379a0000000000000000000000000000000000000000000000000000000008152600401611bb69061438b565b60405180910390fd5b600073ffffffffffffffffffffffffffffffffffffffff168273ffffffffffffffffffffffffffffffffffffffff161415611c2f576040517f08c379a0000000000000000000000000000000000000000000000000000000008152600401611c269061441d565b60405180910390fd5b611c3c83838360016123ca565b8273ffffffffffffffffffffffffffffffffffffffff16611c5c82610d5d565b73ffffffffffffffffffffffffffffffffffffffff1614611cb2576040517f08c379a0000000000000000000000000000000000000000000000000000000008152600401611ca99061438b565b60405180910390fd5b6004600082815260200190815260200160002060006101000a81549073ffffffffffffffffffffffffffffffffffffffff02191690556001600360008573ffffffffffffffffffffffffffffffffffffffff1673ffffffffffffffffffffffffffffffffffffffff168152602001908152602001600020600082825403925050819055506001600360008473ffffffffffffffffffffffffffffffffffffffff1673ffffffffffffffffffffffffffffffffffffffff16815260200190815260200160002060008282540192505081905550816002600083815260200190815260200160002060006101000a81548173ffffffffffffffffffffffffffffffffffffffff021916908373ffffffffffffffffffffffffffffffffffffffff160217905550808273ffffffffffffffffffffffffffffffffffffffff168473ffffffffffffffffffffffffffffffffffffffff167fddf252ad1be2c89b69c2b068fc378daa952ba7f163c4a11628f55a4df523b3ef60405160405180910390a4611e3e83838360016123dc565b505050565b600080611e4f83610d5d565b90508073ffffffffffffffffffffffffffffffffffffffff168473ffffffffffffffffffffffffffffffffffffffff161480611e915750611e90818561192f565b5b80611ecf57508373ffffffffffffffffffffffffffffffffffffffff16611eb784610755565b73ffffffffffffffffffffffffffffffffffffffff16145b91505092915050565b60006002600083815260200190815260200160002060009054906101000a900473ffffffffffffffffffffffffffffffffffffffff169050919050565b8173ffffffffffffffffffffffffffffffffffffffff168373ffffffffffffffffffffffffffffffffffffffff161415611f84576040517f08c379a0000000000000000000000000000000000000000000000000000000008152600401611f7b90614489565b60405180910390fd5b80600560008573ffffffffffffffffffffffffffffffffffffffff1673ffffffffffffffffffffffffffffffffffffffff16815260200190815260200160002060008473ffffffffffffffffffffffffffffffffffffffff1673ffffffffffffffffffffffffffffffffffffffff16815260200190815260200160002060006101000a81548160ff0219169083151502179055508173ffffffffffffffffffffffffffffffffffffffff168373ffffffffffffffffffffffffffffffffffffffff167f17307eab39ab6107e8899845ad3d59bd9653f200f220920489ca2b5937696c3183604051612075919061324c565b60405180910390a3505050565b61208d848484611b49565b612099848484846123e2565b6120d8576040517f08c379a00000000000000000000000000000000000000000000000000000000081526004016120cf9061451b565b60405180910390fd5b50505050565b60606120e982611a3d565b6000600a6000848152602001908152602001600020805461210990613ac8565b80601f016020809104026020016040519081016040528092919081815260200182805461213590613ac8565b80156121825780601f1061215757610100808354040283529160200191612182565b820191906000526020600020905b81548152906001019060200180831161216557829003601f168201915b505050505090506000612193612579565b90506000815114156121a95781925050506121ec565b6000825111156121de5780826040516020016121c6929190614577565b604051602081830303815290604052925050506121ec565b6121e784612590565b925050505b919050565b600081600001549050919050565b6122198282604051806020016040528060008152506125f8565b5050565b61222682612389565b612265576040517f08c379a000000000000000000000000000000000000000000000000000000000815260040161225c9061460d565b60405180910390fd5b80600a6000848152602001908152602001600020908051906020019061228c9291906130f5565b505050565b6001816000016000828254019250508190555050565b60007f80ac58cd000000000000000000000000000000000000000000000000000000007bffffffffffffffffffffffffffffffffffffffffffffffffffffffff1916827bffffffffffffffffffffffffffffffffffffffffffffffffffffffff1916148061237257507f5b5e139f000000000000000000000000000000000000000000000000000000007bffffffffffffffffffffffffffffffffffffffffffffffffffffffff1916827bffffffffffffffffffffffffffffffffffffffffffffffffffffffff1916145b80612382575061238182612653565b5b9050919050565b60008073ffffffffffffffffffffffffffffffffffffffff166123ab83611ed8565b73ffffffffffffffffffffffffffffffffffffffff1614159050919050565b6123d6848484846126bd565b50505050565b50505050565b60006124038473ffffffffffffffffffffffffffffffffffffffff1661281d565b1561256c578373ffffffffffffffffffffffffffffffffffffffff1663150b7a0261242c611a88565b8786866040518563ffffffff1660e01b815260040161244e9493929190614682565b602060405180830381600087803b15801561246857600080fd5b505af192505050801561249957506040513d601f19601f8201168201806040525081019061249691906146e3565b60015b61251c573d80600081146124c9576040519150601f19603f3d011682016040523d82523d6000602084013e6124ce565b606091505b50600081511415612514576040517f08c379a000000000000000000000000000000000000000000000000000000000815260040161250b9061451b565b60405180910390fd5b805181602001fd5b63150b7a0260e01b7bffffffffffffffffffffffffffffffffffffffffffffffffffffffff1916817bffffffffffffffffffffffffffffffffffffffffffffffffffffffff191614915050612571565b600190505b949350505050565b606060405180602001604052806000815250905090565b606061259b82611a3d565b60006125a5612579565b905060008151116125c557604051806020016040528060008152506125f0565b806125cf84612840565b6040516020016125e0929190614577565b6040516020818303038152906040525b915050919050565b6126028383612918565b61260f60008484846123e2565b61264e576040517f08c379a00000000000000000000000000000000000000000000000000000000081526004016126459061451b565b60405180910390fd5b505050565b60007f01ffc9a7000000000000000000000000000000000000000000000000000000007bffffffffffffffffffffffffffffffffffffffffffffffffffffffff1916827bffffffffffffffffffffffffffffffffffffffffffffffffffffffff1916149050919050565b6126c984848484612b36565b600181111561270d576040517f08c379a000000000000000000000000000000000000000000000000000000000815260040161270490614782565b60405180910390fd5b6000829050600073ffffffffffffffffffffffffffffffffffffffff168573ffffffffffffffffffffffffffffffffffffffff1614156127555761275081612c5c565b612794565b8373ffffffffffffffffffffffffffffffffffffffff168573ffffffffffffffffffffffffffffffffffffffff1614612793576127928582612ca5565b5b5b600073ffffffffffffffffffffffffffffffffffffffff168473ffffffffffffffffffffffffffffffffffffffff1614156127d7576127d281612e12565b612816565b8473ffffffffffffffffffffffffffffffffffffffff168473ffffffffffffffffffffffffffffffffffffffff1614612815576128148482612ee3565b5b5b5050505050565b6000808273ffffffffffffffffffffffffffffffffffffffff163b119050919050565b60606000600161284f84612f62565b01905060008167ffffffffffffffff81111561286e5761286d61373f565b5b6040519080825280601f01601f1916602001820160405280156128a05781602001600182028036833780820191505090505b509050600082602001820190505b60011561290d578080600190039150507f3031323334353637383961626364656600000000000000000000000000000000600a86061a8153600a85816128f7576128f66147a2565b5b04945060008514156129085761290d565b6128ae565b819350505050919050565b600073ffffffffffffffffffffffffffffffffffffffff168273ffffffffffffffffffffffffffffffffffffffff161415612988576040517f08c379a000000000000000000000000000000000000000000000000000000000815260040161297f9061481d565b60405180910390fd5b61299181612389565b156129d1576040517f08c379a00000000000000000000000000000000000000000000000000000000081526004016129c890614889565b60405180910390fd5b6129df6000838360016123ca565b6129e881612389565b15612a28576040517f08c379a0000000000000000000000000000000000000000000000000000000008152600401612a1f90614889565b60405180910390fd5b6001600360008473ffffffffffffffffffffffffffffffffffffffff1673ffffffffffffffffffffffffffffffffffffffff16815260200190815260200160002060008282540192505081905550816002600083815260200190815260200160002060006101000a81548173ffffffffffffffffffffffffffffffffffffffff021916908373ffffffffffffffffffffffffffffffffffffffff160217905550808273ffffffffffffffffffffffffffffffffffffffff16600073ffffffffffffffffffffffffffffffffffffffff167fddf252ad1be2c89b69c2b068fc378daa952ba7f163c4a11628f55a4df523b3ef60405160405180910390a4612b326000838360016123dc565b5050565b6001811115612c5657600073ffffffffffffffffffffffffffffffffffffffff168473ffffffffffffffffffffffffffffffffffffffff1614612bca5780600360008673ffffffffffffffffffffffffffffffffffffffff1673ffffffffffffffffffffffffffffffffffffffff1681526020019081526020016000206000828254612bc291906148d8565b925050819055505b600073ffffffffffffffffffffffffffffffffffffffff168373ffffffffffffffffffffffffffffffffffffffff1614612c555780600360008573ffffffffffffffffffffffffffffffffffffffff1673ffffffffffffffffffffffffffffffffffffffff1681526020019081526020016000206000828254612c4d919061490c565b925050819055505b5b50505050565b6008805490506009600083815260200190815260200160002081905550600881908060018154018082558091505060019003906000526020600020016000909190919091505550565b60006001612cb284610f24565b612cbc91906148d8565b9050600060076000848152602001908152602001600020549050818114612da1576000600660008673ffffffffffffffffffffffffffffffffffffffff1673ffffffffffffffffffffffffffffffffffffffff168152602001908152602001600020600084815260200190815260200160002054905080600660008773ffffffffffffffffffffffffffffffffffffffff1673ffffffffffffffffffffffffffffffffffffffff168152602001908152602001600020600084815260200190815260200160002081905550816007600083815260200190815260200160002081905550505b6007600084815260200190815260200160002060009055600660008573ffffffffffffffffffffffffffffffffffffffff1673ffffffffffffffffffffffffffffffffffffffff16815260200190815260200160002060008381526020019081526020016000206000905550505050565b60006001600880549050612e2691906148d8565b9050600060096000848152602001908152602001600020549050600060088381548110612e5657612e55613f5e565b5b906000526020600020015490508060088381548110612e7857612e77613f5e565b5b906000526020600020018190555081600960008381526020019081526020016000208190555060096000858152602001908152602001600020600090556008805480612ec757612ec6614962565b5b6001900381819060005260206000200160009055905550505050565b6000612eee83610f24565b905081600660008573ffffffffffffffffffffffffffffffffffffffff1673ffffffffffffffffffffffffffffffffffffffff168152602001908152602001600020600083815260200190815260200160002081905550806007600084815260200190815260200160002081905550505050565b600080600090507a184f03e93ff9f4daa797ed6e38ed64bf6a1f0100000000000000008310612fc0577a184f03e93ff9f4daa797ed6e38ed64bf6a1f0100000000000000008381612fb657612fb56147a2565b5b0492506040810190505b6d04ee2d6d415b85acef81000000008310612ffd576d04ee2d6d415b85acef81000000008381612ff357612ff26147a2565b5b0492506020810190505b662386f26fc10000831061302c57662386f26fc100008381613022576130216147a2565b5b0492506010810190505b6305f5e1008310613055576305f5e100838161304b5761304a6147a2565b5b0492506008810190505b612710831061307a5761271083816130705761306f6147a2565b5b0492506004810190505b6064831061309d5760648381613093576130926147a2565b5b0492506002810190505b600a83106130ac576001810190505b80915050919050565b6040518060800160405280600073ffffffffffffffffffffffffffffffffffffffff16815260200160608152602001600081526020016000151581525090565b82805461310190613ac8565b90600052602060002090601f016020900481019282613123576000855561316a565b82601f1061313c57805160ff191683800117855561316a565b8280016001018555821561316a579182015b8281111561316957825182559160200191906001019061314e565b5b509050613177919061317b565b5090565b5b8082111561319457600081600090555060010161317c565b5090565b6000604051905090565b600080fd5b600080fd5b60007fffffffff0000000000000000000000000000000000000000000000000000000082169050919050565b6131e1816131ac565b81146131ec57600080fd5b50565b6000813590506131fe816131d8565b92915050565b60006020828403121561321a576132196131a2565b5b6000613228848285016131ef565b91505092915050565b60008115159050919050565b61324681613231565b82525050565b6000602082019050613261600083018461323d565b92915050565b600081519050919050565b600082825260208201905092915050565b60005b838110156132a1578082015181840152602081019050613286565b838111156132b0576000848401525b50505050565b6000601f19601f8301169050919050565b60006132d282613267565b6132dc8185613272565b93506132ec818560208601613283565b6132f5816132b6565b840191505092915050565b6000602082019050818103600083015261331a81846132c7565b905092915050565b6000819050919050565b61333581613322565b811461334057600080fd5b50565b6000813590506133528161332c565b92915050565b60006020828403121561336e5761336d6131a2565b5b600061337c84828501613343565b91505092915050565b600073ffffffffffffffffffffffffffffffffffffffff82169050919050565b60006133b082613385565b9050919050565b6133c0816133a5565b82525050565b60006020820190506133db60008301846133b7565b92915050565b6133ea816133a5565b81146133f557600080fd5b50565b600081359050613407816133e1565b92915050565b60008060408385031215613424576134236131a2565b5b6000613432858286016133f8565b925050602061344385828601613343565b9150509250929050565b600060208284031215613463576134626131a2565b5b6000613471848285016133f8565b91505092915050565b61348381613322565b82525050565b600060408201905061349e600083018561347a565b6134ab602083018461347a565b9392505050565b60006020820190506134c7600083018461347a565b92915050565b6000806000606084860312156134e6576134e56131a2565b5b60006134f4868287016133f8565b9350506020613505868287016133f8565b925050604061351686828701613343565b9150509250925092565b600061352b82613385565b9050919050565b61353b81613520565b82525050565b600082825260208201905092915050565b600061355d82613267565b6135678185613541565b9350613577818560208601613283565b613580816132b6565b840191505092915050565b61359481613322565b82525050565b6135a381613231565b82525050565b60006080830160008301516135c16000860182613532565b50602083015184820360208601526135d98282613552565b91505060408301516135ee604086018261358b565b506060830151613601606086018261359a565b508091505092915050565b6000602082019050818103600083015261362681846135a9565b905092915050565b60008060408385031215613645576136446131a2565b5b600061365385828601613343565b9250506020613664858286016133f8565b9150509250929050565b61367781613231565b811461368257600080fd5b50565b6000813590506136948161366e565b92915050565b600080604083850312156136b1576136b06131a2565b5b60006136bf858286016133f8565b92505060206136d085828601613685565b9150509250929050565b6136e381613520565b82525050565b60006080820190506136fe60008301876136da565b818103602083015261371081866132c7565b905061371f604083018561347a565b61372c606083018461323d565b95945050505050565b600080fd5b600080fd5b7f4e487b7100000000000000000000000000000000000000000000000000000000600052604160045260246000fd5b613777826132b6565b810181811067ffffffffffffffff821117156137965761379561373f565b5b80604052505050565b60006137a9613198565b90506137b5828261376e565b919050565b600067ffffffffffffffff8211156137d5576137d461373f565b5b6137de826132b6565b9050602081019050919050565b82818337600083830152505050565b600061380d613808846137ba565b61379f565b9050828152602081018484840111156138295761382861373a565b5b6138348482856137eb565b509392505050565b600082601f83011261385157613850613735565b5b81356138618482602086016137fa565b91505092915050565b60008060008060808587031215613884576138836131a2565b5b6000613892878288016133f8565b94505060206138a3878288016133f8565b93505060406138b487828801613343565b925050606085013567ffffffffffffffff8111156138d5576138d46131a7565b5b6138e18782880161383c565b91505092959194509250565b60008060408385031215613904576139036131a2565b5b600061391285828601613343565b925050602061392385828601613343565b9150509250929050565b600067ffffffffffffffff8211156139485761394761373f565b5b613951826132b6565b9050602081019050919050565b600061397161396c8461392d565b61379f565b90508281526020810184848401111561398d5761398c61373a565b5b6139988482856137eb565b509392505050565b600082601f8301126139b5576139b4613735565b5b81356139c584826020860161395e565b91505092915050565b6000806000606084860312156139e7576139e66131a2565b5b600084013567ffffffffffffffff811115613a0557613a046131a7565b5b613a11868287016139a0565b9350506020613a2286828701613343565b925050604084013567ffffffffffffffff811115613a4357613a426131a7565b5b613a4f868287016139a0565b9150509250925092565b60008060408385031215613a7057613a6f6131a2565b5b6000613a7e858286016133f8565b9250506020613a8f858286016133f8565b9150509250929050565b7f4e487b7100000000000000000000000000000000000000000000000000000000600052602260045260246000fd5b60006002820490506001821680613ae057607f821691505b60208210811415613af457613af3613a99565b5b50919050565b7f4552433732313a20617070726f76616c20746f2063757272656e74206f776e6560008201527f7200000000000000000000000000000000000000000000000000000000000000602082015250565b6000613b56602183613272565b9150613b6182613afa565b604082019050919050565b60006020820190508181036000830152613b8581613b49565b9050919050565b7f4552433732313a20617070726f76652063616c6c6572206973206e6f7420746f60008201527f6b656e206f776e6572206f7220617070726f76656420666f7220616c6c000000602082015250565b6000613be8603d83613272565b9150613bf382613b8c565b604082019050919050565b60006020820190508181036000830152613c1781613bdb565b9050919050565b7f43616e27742062757920796f7572206f776e207061696e74696e670000000000600082015250565b6000613c54601b83613272565b9150613c5f82613c1e565b602082019050919050565b60006020820190508181036000830152613c8381613c47565b9050919050565b7f496e76616c6964207061696e74696e6720707269636500000000000000000000600082015250565b6000613cc0601683613272565b9150613ccb82613c8a565b602082019050919050565b60006020820190508181036000830152613cef81613cb3565b9050919050565b600081905092915050565b50565b6000613d11600083613cf6565b9150613d1c82613d01565b600082019050919050565b6000613d3282613d04565b9150819050919050565b7f5472616e73666572206661696c65640000000000000000000000000000000000600082015250565b6000613d72600f83613272565b9150613d7d82613d3c565b602082019050919050565b60006020820190508181036000830152613da181613d65565b9050919050565b7f4552433732313a2063616c6c6572206973206e6f7420746f6b656e206f776e6560008201527f72206f7220617070726f76656400000000000000000000000000000000000000602082015250565b6000613e04602d83613272565b9150613e0f82613da8565b604082019050919050565b60006020820190508181036000830152613e3381613df7565b9050919050565b7f455243373231456e756d657261626c653a206f776e657220696e646578206f7560008201527f74206f6620626f756e6473000000000000000000000000000000000000000000602082015250565b6000613e96602b83613272565b9150613ea182613e3a565b604082019050919050565b60006020820190508181036000830152613ec581613e89565b9050919050565b7f455243373231456e756d657261626c653a20676c6f62616c20696e646578206f60008201527f7574206f6620626f756e64730000000000000000000000000000000000000000602082015250565b6000613f28602c83613272565b9150613f3382613ecc565b604082019050919050565b60006020820190508181036000830152613f5781613f1b565b9050919050565b7f4e487b7100000000000000000000000000000000000000000000000000000000600052603260045260246000fd5b7f4552433732313a20696e76616c696420746f6b656e2049440000000000000000600082015250565b6000613fc3601883613272565b9150613fce82613f8d565b602082019050919050565b60006020820190508181036000830152613ff281613fb6565b9050919050565b7f4552433732313a2061646472657373207a65726f206973206e6f74206120766160008201527f6c6964206f776e65720000000000000000000000000000000000000000000000602082015250565b6000614055602983613272565b915061406082613ff9565b604082019050919050565b6000602082019050818103600083015261408481614048565b9050919050565b7f4f6e6c79206f776e657220697320616c6c6f77656420746f206361727279206f60008201527f75742074686973206f7065726174696f6e000000000000000000000000000000602082015250565b60006140e7603183613272565b91506140f28261408b565b604082019050919050565b60006020820190508181036000830152614116816140da565b9050919050565b7f4e6f2073776170207265717565737420686173206265656e206d616465000000600082015250565b6000614153601d83613272565b915061415e8261411d565b602082019050919050565b6000602082019050818103600083015261418281614146565b9050919050565b7f496e76616c696420746f6b656e20494400000000000000000000000000000000600082015250565b60006141bf601083613272565b91506141ca82614189565b602082019050919050565b600060208201905081810360008301526141ee816141b2565b9050919050565b7f5374796c652063757272656e746c79206861732061207377617020726571756560008201527f7374206f6e000000000000000000000000000000000000000000000000000000602082015250565b6000614251602583613272565b915061425c826141f5565b604082019050919050565b6000602082019050818103600083015261428081614244565b9050919050565b7f4f776e65722063616e27742072657175657374207377617020666f72206f776e60008201527f6564207374796c65206e66740000000000000000000000000000000000000000602082015250565b60006142e3602c83613272565b91506142ee82614287565b604082019050919050565b60006020820190508181036000830152614312816142d6565b9050919050565b7f4552433732313a207472616e736665722066726f6d20696e636f72726563742060008201527f6f776e6572000000000000000000000000000000000000000000000000000000602082015250565b6000614375602583613272565b915061438082614319565b604082019050919050565b600060208201905081810360008301526143a481614368565b9050919050565b7f4552433732313a207472616e7366657220746f20746865207a65726f2061646460008201527f7265737300000000000000000000000000000000000000000000000000000000602082015250565b6000614407602483613272565b9150614412826143ab565b604082019050919050565b60006020820190508181036000830152614436816143fa565b9050919050565b7f4552433732313a20617070726f766520746f2063616c6c657200000000000000600082015250565b6000614473601983613272565b915061447e8261443d565b602082019050919050565b600060208201905081810360008301526144a281614466565b9050919050565b7f4552433732313a207472616e7366657220746f206e6f6e20455243373231526560008201527f63656976657220696d706c656d656e7465720000000000000000000000000000602082015250565b6000614505603283613272565b9150614510826144a9565b604082019050919050565b60006020820190508181036000830152614534816144f8565b9050919050565b600081905092915050565b600061455182613267565b61455b818561453b565b935061456b818560208601613283565b80840191505092915050565b60006145838285614546565b915061458f8284614546565b91508190509392505050565b7f45524337323155524953746f726167653a2055524920736574206f66206e6f6e60008201527f6578697374656e7420746f6b656e000000000000000000000000000000000000602082015250565b60006145f7602e83613272565b91506146028261459b565b604082019050919050565b60006020820190508181036000830152614626816145ea565b9050919050565b600081519050919050565b600082825260208201905092915050565b60006146548261462d565b61465e8185614638565b935061466e818560208601613283565b614677816132b6565b840191505092915050565b600060808201905061469760008301876133b7565b6146a460208301866133b7565b6146b1604083018561347a565b81810360608301526146c38184614649565b905095945050505050565b6000815190506146dd816131d8565b92915050565b6000602082840312156146f9576146f86131a2565b5b6000614707848285016146ce565b91505092915050565b7f455243373231456e756d657261626c653a20636f6e736563757469766520747260008201527f616e7366657273206e6f7420737570706f727465640000000000000000000000602082015250565b600061476c603583613272565b915061477782614710565b604082019050919050565b6000602082019050818103600083015261479b8161475f565b9050919050565b7f4e487b7100000000000000000000000000000000000000000000000000000000600052601260045260246000fd5b7f4552433732313a206d696e7420746f20746865207a65726f2061646472657373600082015250565b6000614807602083613272565b9150614812826147d1565b602082019050919050565b60006020820190508181036000830152614836816147fa565b9050919050565b7f4552433732313a20746f6b656e20616c7265616479206d696e74656400000000600082015250565b6000614873601c83613272565b915061487e8261483d565b602082019050919050565b600060208201905081810360008301526148a281614866565b9050919050565b7f4e487b7100000000000000000000000000000000000000000000000000000000600052601160045260246000fd5b60006148e382613322565b91506148ee83613322565b925082821015614901576149006148a9565b5b828203905092915050565b600061491782613322565b915061492283613322565b9250827fffffffffffffffffffffffffffffffffffffffffffffffffffffffffffffffff03821115614957576149566148a9565b5b828201905092915050565b7f4e487b7100000000000000000000000000000000000000000000000000000000600052603160045260246000fdfea2646970667358221220cc34e91719c29da86a7ad1895d672202e3e3d4208c8fef663a222961b19759bb64736f6c6343000809003368747470733a2f2f74682e62696e672e636f6d2f74682f69642f522e66316637376536376230316233633264373835393036306231616339643137633f72696b3d416c71556352745a4453774e4377267269753d687474702533612532662532666f68686d796d792e636f6d25326677702d636f6e74656e7425326675706c6f616473253266323031352532663039253266737072696e672d323031352d7472656e64792d63617375616c2d6f7574666974732d666f722d776f6d656e2e6a70672665686b3d624d6c48394f6673377834524e25326250394745253266676c536d755a61704f7472374e43626647534f49764725326655253364267269736c3d267069643d496d6752617726723d3068747470733a2f2f69302e77702e636f6d2f666173626573742e636f6d2f77702d636f6e74656e742f75706c6f6164732f323031372f30372f436f6f6c2d43617375616c2d5374726565742d5374796c652d4f75746669742d49646561732d323031372d31392d312e6a70673f6669743d383230253243313233302673736c3d31",
  "linkReferences": {},
  "deployedLinkReferences": {}
}