{
  "_format": "hh-sol-artifact-1",
  "contractName": "Oshiakwo",
  "sourceName": "contracts/Oshiakwo.sol",
  "abi": [
    {
      "inputs": [],
      "stateMutability": "nonpayable",
      "type": "constructor"
    },
    {
      "anonymous": false,
      "inputs": [
        {
          "indexed": true,
          "internalType": "address",
          "name": "owner",
          "type": "address"
        },
        {
          "indexed": true,
          "internalType": "address",
          "name": "approved",
          "type": "address"
        },
        {
          "indexed": true,
          "internalType": "uint256",
          "name": "tokenId",
          "type": "uint256"
        }
      ],
      "name": "Approval",
      "type": "event"
    },
    {
      "anonymous": false,
      "inputs": [
        {
          "indexed": true,
          "internalType": "address",
          "name": "owner",
          "type": "address"
        },
        {
          "indexed": true,
          "internalType": "address",
          "name": "operator",
          "type": "address"
        },
        {
          "indexed": false,
          "internalType": "bool",
          "name": "approved",
          "type": "bool"
        }
      ],
      "name": "ApprovalForAll",
      "type": "event"
    },
    {
      "anonymous": false,
      "inputs": [
        {
          "indexed": true,
          "internalType": "address",
          "name": "from",
          "type": "address"
        },
        {
          "indexed": true,
          "internalType": "address",
          "name": "to",
          "type": "address"
        },
        {
          "indexed": true,
          "internalType": "uint256",
          "name": "tokenId",
          "type": "uint256"
        }
      ],
      "name": "Transfer",
      "type": "event"
    },
    {
      "inputs": [
        {
          "internalType": "address",
          "name": "to",
          "type": "address"
        },
        {
          "internalType": "uint256",
          "name": "tokenId",
          "type": "uint256"
        }
      ],
      "name": "approve",
      "outputs": [],
      "stateMutability": "nonpayable",
      "type": "function"
    },
    {
      "inputs": [
        {
          "internalType": "uint256",
          "name": "_style1",
          "type": "uint256"
        },
        {
          "internalType": "uint256",
          "name": "_style2",
          "type": "uint256"
        }
      ],
      "name": "approveSwap",
      "outputs": [],
      "stateMutability": "nonpayable",
      "type": "function"
    },
    {
      "inputs": [
        {
          "internalType": "address",
          "name": "owner",
          "type": "address"
        }
      ],
      "name": "balanceOf",
      "outputs": [
        {
          "internalType": "uint256",
          "name": "",
          "type": "uint256"
        }
      ],
      "stateMutability": "view",
      "type": "function"
    },
    {
      "inputs": [
        {
          "internalType": "uint256",
          "name": "_tokenId",
          "type": "uint256"
        }
      ],
      "name": "buyStyle",
      "outputs": [],
      "stateMutability": "payable",
      "type": "function"
    },
    {
      "inputs": [
        {
          "internalType": "uint256",
          "name": "_tokenId",
          "type": "uint256"
        }
      ],
      "name": "favStyle",
      "outputs": [],
      "stateMutability": "nonpayable",
      "type": "function"
    },
    {
      "inputs": [
        {
          "internalType": "uint256",
          "name": "",
          "type": "uint256"
        },
        {
          "internalType": "address",
          "name": "",
          "type": "address"
        }
      ],
      "name": "favs",
      "outputs": [
        {
          "internalType": "bool",
          "name": "",
          "type": "bool"
        }
      ],
      "stateMutability": "view",
      "type": "function"
    },
    {
      "inputs": [
        {
          "internalType": "uint256",
          "name": "tokenId",
          "type": "uint256"
        }
      ],
      "name": "getApproved",
      "outputs": [
        {
          "internalType": "address",
          "name": "",
          "type": "address"
        }
      ],
      "stateMutability": "view",
      "type": "function"
    },
    {
      "inputs": [
        {
          "internalType": "uint256",
          "name": "tokenId",
          "type": "uint256"
        }
      ],
      "name": "getStyles",
      "outputs": [
        {
          "components": [
            {
              "internalType": "address payable",
              "name": "owner",
              "type": "address"
            },
            {
              "internalType": "string",
              "name": "name",
              "type": "string"
            },
            {
              "internalType": "uint256",
              "name": "price",
              "type": "uint256"
            },
            {
              "internalType": "bool",
              "name": "sold",
              "type": "bool"
            },
            {
              "internalType": "bool",
              "name": "swapRequest",
              "type": "bool"
            }
          ],
          "internalType": "struct Oshiakwo.Style",
          "name": "",
          "type": "tuple"
        }
      ],
      "stateMutability": "view",
      "type": "function"
    },
    {
      "inputs": [
        {
          "internalType": "address",
          "name": "owner",
          "type": "address"
        },
        {
          "internalType": "address",
          "name": "operator",
          "type": "address"
        }
      ],
      "name": "isApprovedForAll",
      "outputs": [
        {
          "internalType": "bool",
          "name": "",
          "type": "bool"
        }
      ],
      "stateMutability": "view",
      "type": "function"
    },
    {
      "inputs": [],
      "name": "name",
      "outputs": [
        {
          "internalType": "string",
          "name": "",
          "type": "string"
        }
      ],
      "stateMutability": "view",
      "type": "function"
    },
    {
      "inputs": [
        {
          "internalType": "uint256",
          "name": "tokenId",
          "type": "uint256"
        }
      ],
      "name": "ownerOf",
      "outputs": [
        {
          "internalType": "address",
          "name": "",
          "type": "address"
        }
      ],
      "stateMutability": "view",
      "type": "function"
    },
    {
      "inputs": [
        {
          "internalType": "uint256",
          "name": "_style1",
          "type": "uint256"
        },
        {
          "internalType": "uint256",
          "name": "_style2",
          "type": "uint256"
        }
      ],
      "name": "requestSwap",
      "outputs": [],
      "stateMutability": "nonpayable",
      "type": "function"
    },
    {
      "inputs": [
        {
          "internalType": "uint256",
          "name": "",
          "type": "uint256"
        }
      ],
      "name": "requests",
      "outputs": [
        {
          "internalType": "address",
          "name": "",
          "type": "address"
        }
      ],
      "stateMutability": "view",
      "type": "function"
    },
    {
      "inputs": [
        {
          "internalType": "address",
          "name": "from",
          "type": "address"
        },
        {
          "internalType": "address",
          "name": "to",
          "type": "address"
        },
        {
          "internalType": "uint256",
          "name": "tokenId",
          "type": "uint256"
        }
      ],
      "name": "safeTransferFrom",
      "outputs": [],
      "stateMutability": "nonpayable",
      "type": "function"
    },
    {
      "inputs": [
        {
          "internalType": "address",
          "name": "from",
          "type": "address"
        },
        {
          "internalType": "address",
          "name": "to",
          "type": "address"
        },
        {
          "internalType": "uint256",
          "name": "tokenId",
          "type": "uint256"
        },
        {
          "internalType": "bytes",
          "name": "data",
          "type": "bytes"
        }
      ],
      "name": "safeTransferFrom",
      "outputs": [],
      "stateMutability": "nonpayable",
      "type": "function"
    },
    {
      "inputs": [
        {
          "internalType": "address",
          "name": "operator",
          "type": "address"
        },
        {
          "internalType": "bool",
          "name": "approved",
          "type": "bool"
        }
      ],
      "name": "setApprovalForAll",
      "outputs": [],
      "stateMutability": "nonpayable",
      "type": "function"
    },
    {
      "inputs": [
        {
          "internalType": "string",
          "name": "_name",
          "type": "string"
        },
        {
          "internalType": "uint256",
          "name": "_price",
          "type": "uint256"
        },
        {
          "internalType": "string",
          "name": "_url",
          "type": "string"
        }
      ],
      "name": "storeStyle",
      "outputs": [],
      "stateMutability": "nonpayable",
      "type": "function"
    },
    {
      "inputs": [
        {
          "internalType": "uint256",
          "name": "",
          "type": "uint256"
        }
      ],
      "name": "styles",
      "outputs": [
        {
          "internalType": "address payable",
          "name": "owner",
          "type": "address"
        },
        {
          "internalType": "string",
          "name": "name",
          "type": "string"
        },
        {
          "internalType": "uint256",
          "name": "price",
          "type": "uint256"
        },
        {
          "internalType": "bool",
          "name": "sold",
          "type": "bool"
        },
        {
          "internalType": "bool",
          "name": "swapRequest",
          "type": "bool"
        }
      ],
      "stateMutability": "view",
      "type": "function"
    },
    {
      "inputs": [
        {
          "internalType": "bytes4",
          "name": "interfaceId",
          "type": "bytes4"
        }
      ],
      "name": "supportsInterface",
      "outputs": [
        {
          "internalType": "bool",
          "name": "",
          "type": "bool"
        }
      ],
      "stateMutability": "view",
      "type": "function"
    },
    {
      "inputs": [
        {
          "internalType": "address",
          "name": "",
          "type": "address"
        }
      ],
      "name": "swaps",
      "outputs": [
        {
          "internalType": "uint256",
          "name": "giveStyle",
          "type": "uint256"
        },
        {
          "internalType": "uint256",
          "name": "receiveStyle",
          "type": "uint256"
        }
      ],
      "stateMutability": "view",
      "type": "function"
    },
    {
      "inputs": [],
      "name": "symbol",
      "outputs": [
        {
          "internalType": "string",
          "name": "",
          "type": "string"
        }
      ],
      "stateMutability": "view",
      "type": "function"
    },
    {
      "inputs": [
        {
          "internalType": "uint256",
          "name": "index",
          "type": "uint256"
        }
      ],
      "name": "tokenByIndex",
      "outputs": [
        {
          "internalType": "uint256",
          "name": "",
          "type": "uint256"
        }
      ],
      "stateMutability": "view",
      "type": "function"
    },
    {
      "inputs": [
        {
          "internalType": "address",
          "name": "owner",
          "type": "address"
        },
        {
          "internalType": "uint256",
          "name": "index",
          "type": "uint256"
        }
      ],
      "name": "tokenOfOwnerByIndex",
      "outputs": [
        {
          "internalType": "uint256",
          "name": "",
          "type": "uint256"
        }
      ],
      "stateMutability": "view",
      "type": "function"
    },
    {
      "inputs": [
        {
          "internalType": "uint256",
          "name": "tokenId",
          "type": "uint256"
        }
      ],
      "name": "tokenURI",
      "outputs": [
        {
          "internalType": "string",
          "name": "",
          "type": "string"
        }
      ],
      "stateMutability": "view",
      "type": "function"
    },
    {
      "inputs": [],
      "name": "totalSupply",
      "outputs": [
        {
          "internalType": "uint256",
          "name": "",
          "type": "uint256"
        }
      ],
      "stateMutability": "view",
      "type": "function"
    },
    {
      "inputs": [
        {
          "internalType": "address",
          "name": "from",
          "type": "address"
        },
        {
          "internalType": "address",
          "name": "to",
          "type": "address"
        },
        {
          "internalType": "uint256",
          "name": "tokenId",
          "type": "uint256"
        }
      ],
      "name": "transferFrom",
      "outputs": [],
      "stateMutability": "nonpayable",
      "type": "function"
    }
  ],
  "bytecode": "0x60806040526040518060c001604052806081815260200162004e7860819139600c9080519060200190620000359291906200011f565b5060405180610140016040528061010f815260200162004d6961010f9139600d90805190602001906200006a9291906200011f565b503480156200007857600080fd5b506040518060400160405280600881526020017f4f736869616b776f0000000000000000000000000000000000000000000000008152506040518060400160405280600381526020017f4f534b00000000000000000000000000000000000000000000000000000000008152508160009080519060200190620000fd9291906200011f565b508060019080519060200190620001169291906200011f565b50505062000234565b8280546200012d90620001fe565b90600052602060002090601f0160209004810192826200015157600085556200019d565b82601f106200016c57805160ff19168380011785556200019d565b828001600101855582156200019d579182015b828111156200019c5782518255916020019190600101906200017f565b5b509050620001ac9190620001b0565b5090565b5b80821115620001cb576000816000905550600101620001b1565b5090565b7f4e487b7100000000000000000000000000000000000000000000000000000000600052602260045260246000fd5b600060028204905060018216806200021757607f821691505b602082108114156200022e576200022d620001cf565b5b50919050565b614b2580620002446000396000f3fe6080604052600436106101815760003560e01c8063652f43ac116100d1578063b2c60dc91161008a578063c87b56dd11610064578063c87b56dd146105e6578063dac4f2f614610623578063dafd68c71461064c578063e985e9c51461067557610181565b8063b2c60dc914610553578063b88d4fde14610594578063c23680c2146105bd57610181565b8063652f43ac1461040b57806370a082311461044857806381d12c581461048557806386d439b6146104c257806395d89b41146104ff578063a22cb4651461052a57610181565b8063209cce4f1161013e5780633881a247116101185780633881a2471461033f57806342842e0e146103685780634f6ccce7146103915780636352211e146103ce57610181565b8063209cce4f146102bd57806323b872dd146102d95780632f745c591461030257610181565b806301ffc9a71461018657806306fdde03146101c3578063081812fc146101ee578063095ea7b31461022b5780631688cf541461025457806318160ddd14610292575b600080fd5b34801561019257600080fd5b506101ad60048036038101906101a891906132d5565b6106b2565b6040516101ba919061331d565b60405180910390f35b3480156101cf57600080fd5b506101d86106c4565b6040516101e591906133d1565b60405180910390f35b3480156101fa57600080fd5b5061021560048036038101906102109190613429565b610756565b6040516102229190613497565b60405180910390f35b34801561023757600080fd5b50610252600480360381019061024d91906134de565b61079c565b005b34801561026057600080fd5b5061027b6004803603810190610276919061351e565b6108b4565b60405161028992919061355a565b60405180910390f35b34801561029e57600080fd5b506102a76108d8565b6040516102b49190613583565b60405180910390f35b6102d760048036038101906102d29190613429565b6108e5565b005b3480156102e557600080fd5b5061030060048036038101906102fb919061359e565b610b6e565b005b34801561030e57600080fd5b50610329600480360381019061032491906134de565b610bce565b6040516103369190613583565b60405180910390f35b34801561034b57600080fd5b5061036660048036038101906103619190613429565b610c73565b005b34801561037457600080fd5b5061038f600480360381019061038a919061359e565b610d3c565b005b34801561039d57600080fd5b506103b860048036038101906103b39190613429565b610d5c565b6040516103c59190613583565b60405180910390f35b3480156103da57600080fd5b506103f560048036038101906103f09190613429565b610dcd565b6040516104029190613497565b60405180910390f35b34801561041757600080fd5b50610432600480360381019061042d9190613429565b610e54565b60405161043f91906136f0565b60405180910390f35b34801561045457600080fd5b5061046f600480360381019061046a919061351e565b610faf565b60405161047c9190613583565b60405180910390f35b34801561049157600080fd5b506104ac60048036038101906104a79190613429565b611067565b6040516104b99190613497565b60405180910390f35b3480156104ce57600080fd5b506104e960048036038101906104e49190613712565b61109a565b6040516104f6919061331d565b60405180910390f35b34801561050b57600080fd5b506105146110c9565b60405161052191906133d1565b60405180910390f35b34801561053657600080fd5b50610551600480360381019061054c919061377e565b61115b565b005b34801561055f57600080fd5b5061057a60048036038101906105759190613429565b611171565b60405161058b9594939291906137cd565b60405180910390f35b3480156105a057600080fd5b506105bb60048036038101906105b6919061395c565b611269565b005b3480156105c957600080fd5b506105e460048036038101906105df91906139df565b6112cb565b005b3480156105f257600080fd5b5061060d60048036038101906106089190613429565b6116a4565b60405161061a91906133d1565b60405180910390f35b34801561062f57600080fd5b5061064a600480360381019061064591906139df565b6116b6565b005b34801561065857600080fd5b50610673600480360381019061066e9190613ac0565b6118af565b005b34801561068157600080fd5b5061069c60048036038101906106979190613b4b565b6119f7565b6040516106a9919061331d565b60405180910390f35b60006106bd82611a8b565b9050919050565b6060600080546106d390613bba565b80601f01602080910402602001604051908101604052809291908181526020018280546106ff90613bba565b801561074c5780601f106107215761010080835404028352916020019161074c565b820191906000526020600020905b81548152906001019060200180831161072f57829003601f168201915b5050505050905090565b600061076182611b05565b6004600083815260200190815260200160002060009054906101000a900473ffffffffffffffffffffffffffffffffffffffff169050919050565b60006107a782610dcd565b90508073ffffffffffffffffffffffffffffffffffffffff168373ffffffffffffffffffffffffffffffffffffffff161415610818576040517f08c379a000000000000000000000000000000000000000000000000000000000815260040161080f90613c5e565b60405180910390fd5b8073ffffffffffffffffffffffffffffffffffffffff16610837611b50565b73ffffffffffffffffffffffffffffffffffffffff161480610866575061086581610860611b50565b6119f7565b5b6108a5576040517f08c379a000000000000000000000000000000000000000000000000000000000815260040161089c90613cf0565b60405180910390fd5b6108af8383611b58565b505050565b60116020528060005260406000206000915090508060000154908060010154905082565b6000600880549050905090565b6000600e600083815260200190815260200160002090508060000160009054906101000a900473ffffffffffffffffffffffffffffffffffffffff1673ffffffffffffffffffffffffffffffffffffffff163373ffffffffffffffffffffffffffffffffffffffff16141561098f576040517f08c379a000000000000000000000000000000000000000000000000000000000815260040161098690613d5c565b60405180910390fd5b8060030160009054906101000a900460ff16156109e1576040517f08c379a00000000000000000000000000000000000000000000000000000000081526004016109d890613dc8565b60405180910390fd5b8060020154341015610a28576040517f08c379a0000000000000000000000000000000000000000000000000000000008152600401610a1f90613e34565b60405180910390fd5b60008160000160009054906101000a900473ffffffffffffffffffffffffffffffffffffffff169050338260000160006101000a81548173ffffffffffffffffffffffffffffffffffffffff021916908373ffffffffffffffffffffffffffffffffffffffff16021790555060018260030160006101000a81548160ff021916908315150217905550610abc813385611c11565b60008173ffffffffffffffffffffffffffffffffffffffff1634604051610ae290613e85565b60006040518083038185875af1925050503d8060008114610b1f576040519150601f19603f3d011682016040523d82523d6000602084013e610b24565b606091505b5050905080610b68576040517f08c379a0000000000000000000000000000000000000000000000000000000008152600401610b5f90613ee6565b60405180910390fd5b50505050565b610b7f610b79611b50565b82611f0b565b610bbe576040517f08c379a0000000000000000000000000000000000000000000000000000000008152600401610bb590613f78565b60405180910390fd5b610bc9838383611c11565b505050565b6000610bd983610faf565b8210610c1a576040517f08c379a0000000000000000000000000000000000000000000000000000000008152600401610c119061400a565b60405180910390fd5b600660008473ffffffffffffffffffffffffffffffffffffffff1673ffffffffffffffffffffffffffffffffffffffff168152602001908152602001600020600083815260200190815260200160002054905092915050565b600f600082815260200190815260200160002060003373ffffffffffffffffffffffffffffffffffffffff1673ffffffffffffffffffffffffffffffffffffffff16815260200190815260200160002060009054906101000a900460ff1615600f600083815260200190815260200160002060003373ffffffffffffffffffffffffffffffffffffffff1673ffffffffffffffffffffffffffffffffffffffff16815260200190815260200160002060006101000a81548160ff02191690831515021790555050565b610d5783838360405180602001604052806000815250611269565b505050565b6000610d666108d8565b8210610da7576040517f08c379a0000000000000000000000000000000000000000000000000000000008152600401610d9e9061409c565b60405180910390fd5b60088281548110610dbb57610dba6140bc565b5b90600052602060002001549050919050565b600080610dd983611fa0565b9050600073ffffffffffffffffffffffffffffffffffffffff168173ffffffffffffffffffffffffffffffffffffffff161415610e4b576040517f08c379a0000000000000000000000000000000000000000000000000000000008152600401610e4290614137565b60405180910390fd5b80915050919050565b610e5c61317d565b6000600e60008481526020019081526020016000209050806040518060a00160405290816000820160009054906101000a900473ffffffffffffffffffffffffffffffffffffffff1673ffffffffffffffffffffffffffffffffffffffff1673ffffffffffffffffffffffffffffffffffffffff168152602001600182018054610ee590613bba565b80601f0160208091040260200160405190810160405280929190818152602001828054610f1190613bba565b8015610f5e5780601f10610f3357610100808354040283529160200191610f5e565b820191906000526020600020905b815481529060010190602001808311610f4157829003601f168201915b50505050508152602001600282015481526020016003820160009054906101000a900460ff161515151581526020016003820160019054906101000a900460ff161515151581525050915050919050565b60008073ffffffffffffffffffffffffffffffffffffffff168273ffffffffffffffffffffffffffffffffffffffff161415611020576040517f08c379a0000000000000000000000000000000000000000000000000000000008152600401611017906141c9565b60405180910390fd5b600360008373ffffffffffffffffffffffffffffffffffffffff1673ffffffffffffffffffffffffffffffffffffffff168152602001908152602001600020549050919050565b60106020528060005260406000206000915054906101000a900473ffffffffffffffffffffffffffffffffffffffff1681565b600f6020528160005260406000206020528060005260406000206000915091509054906101000a900460ff1681565b6060600180546110d890613bba565b80601f016020809104026020016040519081016040528092919081815260200182805461110490613bba565b80156111515780601f1061112657610100808354040283529160200191611151565b820191906000526020600020905b81548152906001019060200180831161113457829003601f168201915b5050505050905090565b61116d611166611b50565b8383611fdd565b5050565b600e6020528060005260406000206000915090508060000160009054906101000a900473ffffffffffffffffffffffffffffffffffffffff16908060010180546111ba90613bba565b80601f01602080910402602001604051908101604052809291908181526020018280546111e690613bba565b80156112335780601f1061120857610100808354040283529160200191611233565b820191906000526020600020905b81548152906001019060200180831161121657829003601f168201915b5050505050908060020154908060030160009054906101000a900460ff16908060030160019054906101000a900460ff16905085565b61127a611274611b50565b83611f0b565b6112b9576040517f08c379a00000000000000000000000000000000000000000000000000000000081526004016112b090613f78565b60405180910390fd5b6112c58484848461214a565b50505050565b80600e600082815260200190815260200160002060000160009054906101000a900473ffffffffffffffffffffffffffffffffffffffff1673ffffffffffffffffffffffffffffffffffffffff163373ffffffffffffffffffffffffffffffffffffffff1614611370576040517f08c379a00000000000000000000000000000000000000000000000000000000081526004016113679061425b565b60405180910390fd5b600061137b84610dcd565b9050600061138884610dcd565b9050600e600085815260200190815260200160002060030160019054906101000a900460ff166113ed576040517f08c379a00000000000000000000000000000000000000000000000000000000081526004016113e4906142c7565b60405180910390fd5b83601160008473ffffffffffffffffffffffffffffffffffffffff1673ffffffffffffffffffffffffffffffffffffffff1681526020019081526020016000206001015414611471576040517f08c379a000000000000000000000000000000000000000000000000000000000815260040161146890614333565b60405180910390fd5b84601160008473ffffffffffffffffffffffffffffffffffffffff1673ffffffffffffffffffffffffffffffffffffffff16815260200190815260200160002060000154146114f5576040517f08c379a00000000000000000000000000000000000000000000000000000000081526004016114ec90614333565b60405180910390fd5b3073ffffffffffffffffffffffffffffffffffffffff166010600086815260200190815260200160002060009054906101000a900473ffffffffffffffffffffffffffffffffffffffff1673ffffffffffffffffffffffffffffffffffffffff161461169d57611566828287611c11565b611571818386611c11565b80600e600087815260200190815260200160002060000160006101000a81548173ffffffffffffffffffffffffffffffffffffffff021916908373ffffffffffffffffffffffffffffffffffffffff16021790555081600e600086815260200190815260200160002060000160006101000a81548173ffffffffffffffffffffffffffffffffffffffff021916908373ffffffffffffffffffffffffffffffffffffffff160217905550306010600086815260200190815260200160002060006101000a81548173ffffffffffffffffffffffffffffffffffffffff021916908373ffffffffffffffffffffffffffffffffffffffff1602179055506000600e600086815260200190815260200160002060030160016101000a81548160ff0219169083151502179055505b5050505050565b60606116af826121a6565b9050919050565b600e600082815260200190815260200160002060030160019054906101000a900460ff161561171a576040517f08c379a0000000000000000000000000000000000000000000000000000000008152600401611711906143c5565b60405180910390fd5b600e600082815260200190815260200160002060000160009054906101000a900473ffffffffffffffffffffffffffffffffffffffff1673ffffffffffffffffffffffffffffffffffffffff163373ffffffffffffffffffffffffffffffffffffffff1614156117bf576040517f08c379a00000000000000000000000000000000000000000000000000000000081526004016117b690614457565b60405180910390fd5b6001600e600083815260200190815260200160002060030160016101000a81548160ff021916908315150217905550336010600083815260200190815260200160002060006101000a81548173ffffffffffffffffffffffffffffffffffffffff021916908373ffffffffffffffffffffffffffffffffffffffff160217905550604051806040016040528083815260200182815250601160003373ffffffffffffffffffffffffffffffffffffffff1673ffffffffffffffffffffffffffffffffffffffff16815260200190815260200160002060008201518160000155602082015181600101559050505050565b6000806040518060a001604052803373ffffffffffffffffffffffffffffffffffffffff1681526020018681526020018581526020018315158152602001821515815250600e6000611901600b6122b9565b815260200190815260200160002060008201518160000160006101000a81548173ffffffffffffffffffffffffffffffffffffffff021916908373ffffffffffffffffffffffffffffffffffffffff16021790555060208201518160010190805190602001906119729291906131c6565b506040820151816002015560608201518160030160006101000a81548160ff02191690831515021790555060808201518160030160016101000a81548160ff0219169083151502179055509050506119d3336119ce600b6122b9565b6122c7565b6119e66119e0600b6122b9565b846122e5565b6119f0600b612359565b5050505050565b6000600560008473ffffffffffffffffffffffffffffffffffffffff1673ffffffffffffffffffffffffffffffffffffffff16815260200190815260200160002060008373ffffffffffffffffffffffffffffffffffffffff1673ffffffffffffffffffffffffffffffffffffffff16815260200190815260200160002060009054906101000a900460ff16905092915050565b60007f780e9d63000000000000000000000000000000000000000000000000000000007bffffffffffffffffffffffffffffffffffffffffffffffffffffffff1916827bffffffffffffffffffffffffffffffffffffffffffffffffffffffff19161480611afe5750611afd8261236f565b5b9050919050565b611b0e81612451565b611b4d576040517f08c379a0000000000000000000000000000000000000000000000000000000008152600401611b4490614137565b60405180910390fd5b50565b600033905090565b816004600083815260200190815260200160002060006101000a81548173ffffffffffffffffffffffffffffffffffffffff021916908373ffffffffffffffffffffffffffffffffffffffff160217905550808273ffffffffffffffffffffffffffffffffffffffff16611bcb83610dcd565b73ffffffffffffffffffffffffffffffffffffffff167f8c5be1e5ebec7d5bd14f71427d1e84f3dd0314c0f7b2291e5b200ac8c7c3b92560405160405180910390a45050565b8273ffffffffffffffffffffffffffffffffffffffff16611c3182610dcd565b73ffffffffffffffffffffffffffffffffffffffff1614611c87576040517f08c379a0000000000000000000000000000000000000000000000000000000008152600401611c7e906144e9565b60405180910390fd5b600073ffffffffffffffffffffffffffffffffffffffff168273ffffffffffffffffffffffffffffffffffffffff161415611cf7576040517f08c379a0000000000000000000000000000000000000000000000000000000008152600401611cee9061457b565b60405180910390fd5b611d048383836001612492565b8273ffffffffffffffffffffffffffffffffffffffff16611d2482610dcd565b73ffffffffffffffffffffffffffffffffffffffff1614611d7a576040517f08c379a0000000000000000000000000000000000000000000000000000000008152600401611d71906144e9565b60405180910390fd5b6004600082815260200190815260200160002060006101000a81549073ffffffffffffffffffffffffffffffffffffffff02191690556001600360008573ffffffffffffffffffffffffffffffffffffffff1673ffffffffffffffffffffffffffffffffffffffff168152602001908152602001600020600082825403925050819055506001600360008473ffffffffffffffffffffffffffffffffffffffff1673ffffffffffffffffffffffffffffffffffffffff16815260200190815260200160002060008282540192505081905550816002600083815260200190815260200160002060006101000a81548173ffffffffffffffffffffffffffffffffffffffff021916908373ffffffffffffffffffffffffffffffffffffffff160217905550808273ffffffffffffffffffffffffffffffffffffffff168473ffffffffffffffffffffffffffffffffffffffff167fddf252ad1be2c89b69c2b068fc378daa952ba7f163c4a11628f55a4df523b3ef60405160405180910390a4611f0683838360016124a4565b505050565b600080611f1783610dcd565b90508073ffffffffffffffffffffffffffffffffffffffff168473ffffffffffffffffffffffffffffffffffffffff161480611f595750611f5881856119f7565b5b80611f9757508373ffffffffffffffffffffffffffffffffffffffff16611f7f84610756565b73ffffffffffffffffffffffffffffffffffffffff16145b91505092915050565b60006002600083815260200190815260200160002060009054906101000a900473ffffffffffffffffffffffffffffffffffffffff169050919050565b8173ffffffffffffffffffffffffffffffffffffffff168373ffffffffffffffffffffffffffffffffffffffff16141561204c576040517f08c379a0000000000000000000000000000000000000000000000000000000008152600401612043906145e7565b60405180910390fd5b80600560008573ffffffffffffffffffffffffffffffffffffffff1673ffffffffffffffffffffffffffffffffffffffff16815260200190815260200160002060008473ffffffffffffffffffffffffffffffffffffffff1673ffffffffffffffffffffffffffffffffffffffff16815260200190815260200160002060006101000a81548160ff0219169083151502179055508173ffffffffffffffffffffffffffffffffffffffff168373ffffffffffffffffffffffffffffffffffffffff167f17307eab39ab6107e8899845ad3d59bd9653f200f220920489ca2b5937696c318360405161213d919061331d565b60405180910390a3505050565b612155848484611c11565b612161848484846124aa565b6121a0576040517f08c379a000000000000000000000000000000000000000000000000000000000815260040161219790614679565b60405180910390fd5b50505050565b60606121b182611b05565b6000600a600084815260200190815260200160002080546121d190613bba565b80601f01602080910402602001604051908101604052809291908181526020018280546121fd90613bba565b801561224a5780601f1061221f5761010080835404028352916020019161224a565b820191906000526020600020905b81548152906001019060200180831161222d57829003601f168201915b50505050509050600061225b612641565b90506000815114156122715781925050506122b4565b6000825111156122a657808260405160200161228e9291906146d5565b604051602081830303815290604052925050506122b4565b6122af84612658565b925050505b919050565b600081600001549050919050565b6122e18282604051806020016040528060008152506126c0565b5050565b6122ee82612451565b61232d576040517f08c379a00000000000000000000000000000000000000000000000000000000081526004016123249061476b565b60405180910390fd5b80600a600084815260200190815260200160002090805190602001906123549291906131c6565b505050565b6001816000016000828254019250508190555050565b60007f80ac58cd000000000000000000000000000000000000000000000000000000007bffffffffffffffffffffffffffffffffffffffffffffffffffffffff1916827bffffffffffffffffffffffffffffffffffffffffffffffffffffffff1916148061243a57507f5b5e139f000000000000000000000000000000000000000000000000000000007bffffffffffffffffffffffffffffffffffffffffffffffffffffffff1916827bffffffffffffffffffffffffffffffffffffffffffffffffffffffff1916145b8061244a57506124498261271b565b5b9050919050565b60008073ffffffffffffffffffffffffffffffffffffffff1661247383611fa0565b73ffffffffffffffffffffffffffffffffffffffff1614159050919050565b61249e84848484612785565b50505050565b50505050565b60006124cb8473ffffffffffffffffffffffffffffffffffffffff166128e5565b15612634578373ffffffffffffffffffffffffffffffffffffffff1663150b7a026124f4611b50565b8786866040518563ffffffff1660e01b815260040161251694939291906147e0565b602060405180830381600087803b15801561253057600080fd5b505af192505050801561256157506040513d601f19601f8201168201806040525081019061255e9190614841565b60015b6125e4573d8060008114612591576040519150601f19603f3d011682016040523d82523d6000602084013e612596565b606091505b506000815114156125dc576040517f08c379a00000000000000000000000000000000000000000000000000000000081526004016125d390614679565b60405180910390fd5b805181602001fd5b63150b7a0260e01b7bffffffffffffffffffffffffffffffffffffffffffffffffffffffff1916817bffffffffffffffffffffffffffffffffffffffffffffffffffffffff191614915050612639565b600190505b949350505050565b606060405180602001604052806000815250905090565b606061266382611b05565b600061266d612641565b9050600081511161268d57604051806020016040528060008152506126b8565b8061269784612908565b6040516020016126a89291906146d5565b6040516020818303038152906040525b915050919050565b6126ca83836129e0565b6126d760008484846124aa565b612716576040517f08c379a000000000000000000000000000000000000000000000000000000000815260040161270d90614679565b60405180910390fd5b505050565b60007f01ffc9a7000000000000000000000000000000000000000000000000000000007bffffffffffffffffffffffffffffffffffffffffffffffffffffffff1916827bffffffffffffffffffffffffffffffffffffffffffffffffffffffff1916149050919050565b61279184848484612bfe565b60018111156127d5576040517f08c379a00000000000000000000000000000000000000000000000000000000081526004016127cc906148e0565b60405180910390fd5b6000829050600073ffffffffffffffffffffffffffffffffffffffff168573ffffffffffffffffffffffffffffffffffffffff16141561281d5761281881612d24565b61285c565b8373ffffffffffffffffffffffffffffffffffffffff168573ffffffffffffffffffffffffffffffffffffffff161461285b5761285a8582612d6d565b5b5b600073ffffffffffffffffffffffffffffffffffffffff168473ffffffffffffffffffffffffffffffffffffffff16141561289f5761289a81612eda565b6128de565b8473ffffffffffffffffffffffffffffffffffffffff168473ffffffffffffffffffffffffffffffffffffffff16146128dd576128dc8482612fab565b5b5b5050505050565b6000808273ffffffffffffffffffffffffffffffffffffffff163b119050919050565b6060600060016129178461302a565b01905060008167ffffffffffffffff81111561293657612935613831565b5b6040519080825280601f01601f1916602001820160405280156129685781602001600182028036833780820191505090505b509050600082602001820190505b6001156129d5578080600190039150507f3031323334353637383961626364656600000000000000000000000000000000600a86061a8153600a85816129bf576129be614900565b5b04945060008514156129d0576129d5565b612976565b819350505050919050565b600073ffffffffffffffffffffffffffffffffffffffff168273ffffffffffffffffffffffffffffffffffffffff161415612a50576040517f08c379a0000000000000000000000000000000000000000000000000000000008152600401612a479061497b565b60405180910390fd5b612a5981612451565b15612a99576040517f08c379a0000000000000000000000000000000000000000000000000000000008152600401612a90906149e7565b60405180910390fd5b612aa7600083836001612492565b612ab081612451565b15612af0576040517f08c379a0000000000000000000000000000000000000000000000000000000008152600401612ae7906149e7565b60405180910390fd5b6001600360008473ffffffffffffffffffffffffffffffffffffffff1673ffffffffffffffffffffffffffffffffffffffff16815260200190815260200160002060008282540192505081905550816002600083815260200190815260200160002060006101000a81548173ffffffffffffffffffffffffffffffffffffffff021916908373ffffffffffffffffffffffffffffffffffffffff160217905550808273ffffffffffffffffffffffffffffffffffffffff16600073ffffffffffffffffffffffffffffffffffffffff167fddf252ad1be2c89b69c2b068fc378daa952ba7f163c4a11628f55a4df523b3ef60405160405180910390a4612bfa6000838360016124a4565b5050565b6001811115612d1e57600073ffffffffffffffffffffffffffffffffffffffff168473ffffffffffffffffffffffffffffffffffffffff1614612c925780600360008673ffffffffffffffffffffffffffffffffffffffff1673ffffffffffffffffffffffffffffffffffffffff1681526020019081526020016000206000828254612c8a9190614a36565b925050819055505b600073ffffffffffffffffffffffffffffffffffffffff168373ffffffffffffffffffffffffffffffffffffffff1614612d1d5780600360008573ffffffffffffffffffffffffffffffffffffffff1673ffffffffffffffffffffffffffffffffffffffff1681526020019081526020016000206000828254612d159190614a6a565b925050819055505b5b50505050565b6008805490506009600083815260200190815260200160002081905550600881908060018154018082558091505060019003906000526020600020016000909190919091505550565b60006001612d7a84610faf565b612d849190614a36565b9050600060076000848152602001908152602001600020549050818114612e69576000600660008673ffffffffffffffffffffffffffffffffffffffff1673ffffffffffffffffffffffffffffffffffffffff168152602001908152602001600020600084815260200190815260200160002054905080600660008773ffffffffffffffffffffffffffffffffffffffff1673ffffffffffffffffffffffffffffffffffffffff168152602001908152602001600020600084815260200190815260200160002081905550816007600083815260200190815260200160002081905550505b6007600084815260200190815260200160002060009055600660008573ffffffffffffffffffffffffffffffffffffffff1673ffffffffffffffffffffffffffffffffffffffff16815260200190815260200160002060008381526020019081526020016000206000905550505050565b60006001600880549050612eee9190614a36565b9050600060096000848152602001908152602001600020549050600060088381548110612f1e57612f1d6140bc565b5b906000526020600020015490508060088381548110612f4057612f3f6140bc565b5b906000526020600020018190555081600960008381526020019081526020016000208190555060096000858152602001908152602001600020600090556008805480612f8f57612f8e614ac0565b5b6001900381819060005260206000200160009055905550505050565b6000612fb683610faf565b905081600660008573ffffffffffffffffffffffffffffffffffffffff1673ffffffffffffffffffffffffffffffffffffffff168152602001908152602001600020600083815260200190815260200160002081905550806007600084815260200190815260200160002081905550505050565b600080600090507a184f03e93ff9f4daa797ed6e38ed64bf6a1f0100000000000000008310613088577a184f03e93ff9f4daa797ed6e38ed64bf6a1f010000000000000000838161307e5761307d614900565b5b0492506040810190505b6d04ee2d6d415b85acef810000000083106130c5576d04ee2d6d415b85acef810000000083816130bb576130ba614900565b5b0492506020810190505b662386f26fc1000083106130f457662386f26fc1000083816130ea576130e9614900565b5b0492506010810190505b6305f5e100831061311d576305f5e100838161311357613112614900565b5b0492506008810190505b612710831061314257612710838161313857613137614900565b5b0492506004810190505b60648310613165576064838161315b5761315a614900565b5b0492506002810190505b600a8310613174576001810190505b80915050919050565b6040518060a00160405280600073ffffffffffffffffffffffffffffffffffffffff16815260200160608152602001600081526020016000151581526020016000151581525090565b8280546131d290613bba565b90600052602060002090601f0160209004810192826131f4576000855561323b565b82601f1061320d57805160ff191683800117855561323b565b8280016001018555821561323b579182015b8281111561323a57825182559160200191906001019061321f565b5b509050613248919061324c565b5090565b5b8082111561326557600081600090555060010161324d565b5090565b6000604051905090565b600080fd5b600080fd5b60007fffffffff0000000000000000000000000000000000000000000000000000000082169050919050565b6132b28161327d565b81146132bd57600080fd5b50565b6000813590506132cf816132a9565b92915050565b6000602082840312156132eb576132ea613273565b5b60006132f9848285016132c0565b91505092915050565b60008115159050919050565b61331781613302565b82525050565b6000602082019050613332600083018461330e565b92915050565b600081519050919050565b600082825260208201905092915050565b60005b83811015613372578082015181840152602081019050613357565b83811115613381576000848401525b50505050565b6000601f19601f8301169050919050565b60006133a382613338565b6133ad8185613343565b93506133bd818560208601613354565b6133c681613387565b840191505092915050565b600060208201905081810360008301526133eb8184613398565b905092915050565b6000819050919050565b613406816133f3565b811461341157600080fd5b50565b600081359050613423816133fd565b92915050565b60006020828403121561343f5761343e613273565b5b600061344d84828501613414565b91505092915050565b600073ffffffffffffffffffffffffffffffffffffffff82169050919050565b600061348182613456565b9050919050565b61349181613476565b82525050565b60006020820190506134ac6000830184613488565b92915050565b6134bb81613476565b81146134c657600080fd5b50565b6000813590506134d8816134b2565b92915050565b600080604083850312156134f5576134f4613273565b5b6000613503858286016134c9565b925050602061351485828601613414565b9150509250929050565b60006020828403121561353457613533613273565b5b6000613542848285016134c9565b91505092915050565b613554816133f3565b82525050565b600060408201905061356f600083018561354b565b61357c602083018461354b565b9392505050565b6000602082019050613598600083018461354b565b92915050565b6000806000606084860312156135b7576135b6613273565b5b60006135c5868287016134c9565b93505060206135d6868287016134c9565b92505060406135e786828701613414565b9150509250925092565b60006135fc82613456565b9050919050565b61360c816135f1565b82525050565b600082825260208201905092915050565b600061362e82613338565b6136388185613612565b9350613648818560208601613354565b61365181613387565b840191505092915050565b613665816133f3565b82525050565b61367481613302565b82525050565b600060a0830160008301516136926000860182613603565b50602083015184820360208601526136aa8282613623565b91505060408301516136bf604086018261365c565b5060608301516136d2606086018261366b565b5060808301516136e5608086018261366b565b508091505092915050565b6000602082019050818103600083015261370a818461367a565b905092915050565b6000806040838503121561372957613728613273565b5b600061373785828601613414565b9250506020613748858286016134c9565b9150509250929050565b61375b81613302565b811461376657600080fd5b50565b60008135905061377881613752565b92915050565b6000806040838503121561379557613794613273565b5b60006137a3858286016134c9565b92505060206137b485828601613769565b9150509250929050565b6137c7816135f1565b82525050565b600060a0820190506137e260008301886137be565b81810360208301526137f48187613398565b9050613803604083018661354b565b613810606083018561330e565b61381d608083018461330e565b9695505050505050565b600080fd5b600080fd5b7f4e487b7100000000000000000000000000000000000000000000000000000000600052604160045260246000fd5b61386982613387565b810181811067ffffffffffffffff8211171561388857613887613831565b5b80604052505050565b600061389b613269565b90506138a78282613860565b919050565b600067ffffffffffffffff8211156138c7576138c6613831565b5b6138d082613387565b9050602081019050919050565b82818337600083830152505050565b60006138ff6138fa846138ac565b613891565b90508281526020810184848401111561391b5761391a61382c565b5b6139268482856138dd565b509392505050565b600082601f83011261394357613942613827565b5b81356139538482602086016138ec565b91505092915050565b6000806000806080858703121561397657613975613273565b5b6000613984878288016134c9565b9450506020613995878288016134c9565b93505060406139a687828801613414565b925050606085013567ffffffffffffffff8111156139c7576139c6613278565b5b6139d38782880161392e565b91505092959194509250565b600080604083850312156139f6576139f5613273565b5b6000613a0485828601613414565b9250506020613a1585828601613414565b9150509250929050565b600067ffffffffffffffff821115613a3a57613a39613831565b5b613a4382613387565b9050602081019050919050565b6000613a63613a5e84613a1f565b613891565b905082815260208101848484011115613a7f57613a7e61382c565b5b613a8a8482856138dd565b509392505050565b600082601f830112613aa757613aa6613827565b5b8135613ab7848260208601613a50565b91505092915050565b600080600060608486031215613ad957613ad8613273565b5b600084013567ffffffffffffffff811115613af757613af6613278565b5b613b0386828701613a92565b9350506020613b1486828701613414565b925050604084013567ffffffffffffffff811115613b3557613b34613278565b5b613b4186828701613a92565b9150509250925092565b60008060408385031215613b6257613b61613273565b5b6000613b70858286016134c9565b9250506020613b81858286016134c9565b9150509250929050565b7f4e487b7100000000000000000000000000000000000000000000000000000000600052602260045260246000fd5b60006002820490506001821680613bd257607f821691505b60208210811415613be657613be5613b8b565b5b50919050565b7f4552433732313a20617070726f76616c20746f2063757272656e74206f776e6560008201527f7200000000000000000000000000000000000000000000000000000000000000602082015250565b6000613c48602183613343565b9150613c5382613bec565b604082019050919050565b60006020820190508181036000830152613c7781613c3b565b9050919050565b7f4552433732313a20617070726f76652063616c6c6572206973206e6f7420746f60008201527f6b656e206f776e6572206f7220617070726f76656420666f7220616c6c000000602082015250565b6000613cda603d83613343565b9150613ce582613c7e565b604082019050919050565b60006020820190508181036000830152613d0981613ccd565b9050919050565b7f43616e27742062757920796f7572206f776e207061696e74696e670000000000600082015250565b6000613d46601b83613343565b9150613d5182613d10565b602082019050919050565b60006020820190508181036000830152613d7581613d39565b9050919050565b7f536f7272792c207061696e74696e6720697320616c726561647920736f6c6400600082015250565b6000613db2601f83613343565b9150613dbd82613d7c565b602082019050919050565b60006020820190508181036000830152613de181613da5565b9050919050565b7f496e76616c6964207061696e74696e6720707269636500000000000000000000600082015250565b6000613e1e601683613343565b9150613e2982613de8565b602082019050919050565b60006020820190508181036000830152613e4d81613e11565b9050919050565b600081905092915050565b50565b6000613e6f600083613e54565b9150613e7a82613e5f565b600082019050919050565b6000613e9082613e62565b9150819050919050565b7f5472616e73666572206661696c65640000000000000000000000000000000000600082015250565b6000613ed0600f83613343565b9150613edb82613e9a565b602082019050919050565b60006020820190508181036000830152613eff81613ec3565b9050919050565b7f4552433732313a2063616c6c6572206973206e6f7420746f6b656e206f776e6560008201527f72206f7220617070726f76656400000000000000000000000000000000000000602082015250565b6000613f62602d83613343565b9150613f6d82613f06565b604082019050919050565b60006020820190508181036000830152613f9181613f55565b9050919050565b7f455243373231456e756d657261626c653a206f776e657220696e646578206f7560008201527f74206f6620626f756e6473000000000000000000000000000000000000000000602082015250565b6000613ff4602b83613343565b9150613fff82613f98565b604082019050919050565b6000602082019050818103600083015261402381613fe7565b9050919050565b7f455243373231456e756d657261626c653a20676c6f62616c20696e646578206f60008201527f7574206f6620626f756e64730000000000000000000000000000000000000000602082015250565b6000614086602c83613343565b91506140918261402a565b604082019050919050565b600060208201905081810360008301526140b581614079565b9050919050565b7f4e487b7100000000000000000000000000000000000000000000000000000000600052603260045260246000fd5b7f4552433732313a20696e76616c696420746f6b656e2049440000000000000000600082015250565b6000614121601883613343565b915061412c826140eb565b602082019050919050565b6000602082019050818103600083015261415081614114565b9050919050565b7f4552433732313a2061646472657373207a65726f206973206e6f74206120766160008201527f6c6964206f776e65720000000000000000000000000000000000000000000000602082015250565b60006141b3602983613343565b91506141be82614157565b604082019050919050565b600060208201905081810360008301526141e2816141a6565b9050919050565b7f4f6e6c79206f776e657220697320616c6c6f77656420746f206361727279206f60008201527f75742074686973206f7065726174696f6e000000000000000000000000000000602082015250565b6000614245603183613343565b9150614250826141e9565b604082019050919050565b6000602082019050818103600083015261427481614238565b9050919050565b7f4e6f2073776170207265717565737420686173206265656e206d616465000000600082015250565b60006142b1601d83613343565b91506142bc8261427b565b602082019050919050565b600060208201905081810360008301526142e0816142a4565b9050919050565b7f496e76616c696420746f6b656e20494400000000000000000000000000000000600082015250565b600061431d601083613343565b9150614328826142e7565b602082019050919050565b6000602082019050818103600083015261434c81614310565b9050919050565b7f5374796c652063757272656e746c79206861732061207377617020726571756560008201527f7374206f6e000000000000000000000000000000000000000000000000000000602082015250565b60006143af602583613343565b91506143ba82614353565b604082019050919050565b600060208201905081810360008301526143de816143a2565b9050919050565b7f4f776e65722063616e27742072657175657374207377617020666f72206f776e60008201527f6564207374796c65206e66740000000000000000000000000000000000000000602082015250565b6000614441602c83613343565b915061444c826143e5565b604082019050919050565b6000602082019050818103600083015261447081614434565b9050919050565b7f4552433732313a207472616e736665722066726f6d20696e636f72726563742060008201527f6f776e6572000000000000000000000000000000000000000000000000000000602082015250565b60006144d3602583613343565b91506144de82614477565b604082019050919050565b60006020820190508181036000830152614502816144c6565b9050919050565b7f4552433732313a207472616e7366657220746f20746865207a65726f2061646460008201527f7265737300000000000000000000000000000000000000000000000000000000602082015250565b6000614565602483613343565b915061457082614509565b604082019050919050565b6000602082019050818103600083015261459481614558565b9050919050565b7f4552433732313a20617070726f766520746f2063616c6c657200000000000000600082015250565b60006145d1601983613343565b91506145dc8261459b565b602082019050919050565b60006020820190508181036000830152614600816145c4565b9050919050565b7f4552433732313a207472616e7366657220746f206e6f6e20455243373231526560008201527f63656976657220696d706c656d656e7465720000000000000000000000000000602082015250565b6000614663603283613343565b915061466e82614607565b604082019050919050565b6000602082019050818103600083015261469281614656565b9050919050565b600081905092915050565b60006146af82613338565b6146b98185614699565b93506146c9818560208601613354565b80840191505092915050565b60006146e182856146a4565b91506146ed82846146a4565b91508190509392505050565b7f45524337323155524953746f726167653a2055524920736574206f66206e6f6e60008201527f6578697374656e7420746f6b656e000000000000000000000000000000000000602082015250565b6000614755602e83613343565b9150614760826146f9565b604082019050919050565b6000602082019050818103600083015261478481614748565b9050919050565b600081519050919050565b600082825260208201905092915050565b60006147b28261478b565b6147bc8185614796565b93506147cc818560208601613354565b6147d581613387565b840191505092915050565b60006080820190506147f56000830187613488565b6148026020830186613488565b61480f604083018561354b565b818103606083015261482181846147a7565b905095945050505050565b60008151905061483b816132a9565b92915050565b60006020828403121561485757614856613273565b5b60006148658482850161482c565b91505092915050565b7f455243373231456e756d657261626c653a20636f6e736563757469766520747260008201527f616e7366657273206e6f7420737570706f727465640000000000000000000000602082015250565b60006148ca603583613343565b91506148d58261486e565b604082019050919050565b600060208201905081810360008301526148f9816148bd565b9050919050565b7f4e487b7100000000000000000000000000000000000000000000000000000000600052601260045260246000fd5b7f4552433732313a206d696e7420746f20746865207a65726f2061646472657373600082015250565b6000614965602083613343565b91506149708261492f565b602082019050919050565b6000602082019050818103600083015261499481614958565b9050919050565b7f4552433732313a20746f6b656e20616c7265616479206d696e74656400000000600082015250565b60006149d1601c83613343565b91506149dc8261499b565b602082019050919050565b60006020820190508181036000830152614a00816149c4565b9050919050565b7f4e487b7100000000000000000000000000000000000000000000000000000000600052601160045260246000fd5b6000614a41826133f3565b9150614a4c836133f3565b925082821015614a5f57614a5e614a07565b5b828203905092915050565b6000614a75826133f3565b9150614a80836133f3565b9250827fffffffffffffffffffffffffffffffffffffffffffffffffffffffffffffffff03821115614ab557614ab4614a07565b5b828201905092915050565b7f4e487b7100000000000000000000000000000000000000000000000000000000600052603160045260246000fdfea2646970667358221220e2780aca0f1818f5dd4a7e97a7819ac47ccf8afcdede50c121aae35f94d767b064736f6c6343000809003368747470733a2f2f74682e62696e672e636f6d2f74682f69642f522e66316637376536376230316233633264373835393036306231616339643137633f72696b3d416c71556352745a4453774e4377267269753d687474702533612532662532666f68686d796d792e636f6d25326677702d636f6e74656e7425326675706c6f616473253266323031352532663039253266737072696e672d323031352d7472656e64792d63617375616c2d6f7574666974732d666f722d776f6d656e2e6a70672665686b3d624d6c48394f6673377834524e25326250394745253266676c536d755a61704f7472374e43626647534f49764725326655253364267269736c3d267069643d496d6752617726723d3068747470733a2f2f69302e77702e636f6d2f666173626573742e636f6d2f77702d636f6e74656e742f75706c6f6164732f323031372f30372f436f6f6c2d43617375616c2d5374726565742d5374796c652d4f75746669742d49646561732d323031372d31392d312e6a70673f6669743d383230253243313233302673736c3d31",
  "linkReferences": {},
  "deployedLinkReferences": {}
}